:020000040000FA
:100000000C946D000C9495000C9495000C94950044
:100010000C9495000C9495000C9495000C9495000C
:100020000C9495000C9495000C9495000C949500FC
:100030000C9495000C9495000C9495000C949500EC
:100040000C94A4070C9495000C9495000C949500C6
:100050000C9495000C9495000C9495000C949500CC
:100060000C94EE070C94950032313A32363A353121
:10007000004E6F76203133203230323500000000E0
:1000800000240027002A0000000000250028002B83
:1000900000000000002300260029000404040404DA
:1000A0000404040202020202020303030303030125
:1000B00002040810204080010204081020010204FC
:1000C00008102000000008000201000003040700DF
:1000D00000000000000000001A0911241FBECFEF2D
:1000E000D8E0DEBFCDBF22E0A4ECB1E001C01D929C
:1000F000A23BB207E1F711E0A0E0B1E0EAE2FEE1E5
:1001000002C005900D92A43CB107D9F710E0CDE6EE
:10011000D0E004C02197FE010E94E80DCC36D10743
:10012000C9F70E943B090C94130F0C94000008952A
:100130000895833081F028F4813099F08230A9F05D
:1001400008958730A9F08830C9F08430B1F48091E7
:1001500080008F7D03C0809180008F778093800026
:10016000089584B58F7784BD089584B58F7DFBCFC6
:100170008091B0008F778093B00008958091B00097
:100180008F7DF9CFCF93DF93282F30E0F901ED5326
:10019000FF4F8491F901E155FF4FD491F901E556E4
:1001A000FF4FC491CC23A1F081110E949900EC2F44
:1001B000F0E0EE0FFF1FEF56FF4FA591B491EC91C9
:1001C000ED2381E090E009F480E0DF91CF91089584
:1001D00080E090E0FACF1F93CF93DF93282F30E099
:1001E000F901ED53FF4F8491F901E155FF4FD4918F
:1001F000F901E556FF4FC491CC23A9F0162F8111C8
:100200000E949900EC2FF0E0EE0FFF1FE957FF4F1F
:10021000A591B4918FB7F894EC91111108C0D095C5
:10022000DE23DC938FBFDF91CF911F910895DE2BEA
:10023000F8CFCF93DF9390E0FC01E155FF4F24917D
:1002400085569F4FFC0184918823D1F090E0880F60
:10025000991FFC01E358FF4FA591B491FC01E957A8
:10026000FF4FC591D491623071F49FB7F8943C91DF
:10027000822F809583238C93E8812E2B28839FBF28
:10028000DF91CF9108958FB7F894EC912E2B2C939A
:100290008FBFF6CF3FB7F8948091190290911A0260
:1002A000A0911B02B0911C0226B5A89B05C02F3F50
:1002B00019F00196A11DB11D3FBFBA2FA92F982F8C
:1002C0008827BC01CD01620F711D811D911D42E087
:1002D000660F771F881F991F4A95D1F708958F924F
:1002E0009F92AF92BF92CF92DF92EF92FF924B011B
:1002F0005C010E944A016B017C010E944A016C1959
:100300007D098E099F09683E734081059105A8F318
:1003100021E0821A9108A108B10888EEC80E83E096
:10032000D81EE11CF11C81149104A104B10429F729
:10033000FF90EF90DF90CF90BF90AF909F908F9005
:100340000895AF92BF92CF92DF92EF92FF920F93F8
:100350001F93CF93DF936C017B018B01040F151F5B
:10036000EB015E01AE18BF08C017D10759F06991C3
:10037000D601ED91FC910190F081E02DC601099527
:10038000892B79F7C501DF91CF911F910F91FF90D4
:10039000EF90DF90CF90BF90AF9008950895209197
:1003A000E501260F3327331F21323105ECF420916C
:1003B0006B02FC0190E080E0243069F082E0089557
:1003C000A091E5012191AC014B535E4FA40FB52FD5
:1003D000B11D2C930196861798F38091E501680F63
:1003E0006093E50180E0089581E0089510926B022A
:1003F00081E080936A021092450261E082E10E94EE
:10040000EB0061E083E10E94EB00E9EBF0E080812A
:100410008E7F808380818D7F808388E48093B80085
:1004200085E48093BC00089510922202109221026C
:1004300010927202109294020E94F60187E990E0F5
:100440009093200280931F0288E990E090931E020F
:1004500080931D020895CF93DF9391E09093C401A0
:100460008823B9F0C091B800D091BA008091BC0047
:100470008A7B8093BC0060E082E10E94EB0060E038
:1004800083E10E94EB000E94F601D093BA00C09372
:10049000B800DF91CF9108958F929F92AF92BF9253
:1004A000CF92DF92EF92FF920F931F93CF93DF9340
:1004B000D0919402D13208F0D7C0182FC091930286
:1004C0000E944A016B017C0180916B0281116BC01B
:1004D00082E080936B0210936A028FEF809369022F
:1004E00010926802D0936702A3E7B2E0E7E4F2E07B
:1004F00080E0D81391C01092460280914602CC0F42
:10050000C82BC093460280914502813009F088C013
:10051000109245020E944A016B017C0180914602C3
:100520008093BB0080916D0290916E02A0916F024A
:10053000B0917002892B8A2B8B2BA1F00E944A016B
:1005400000916D0210916E0220916F023091700245
:100550006C197D098E099F090617170728073907A7
:1005600008F442C08091BC0083FDD8CF85EC809315
:10057000BC000E944A016B017C0180916B028230B9
:1005800009F450C0809169028F3F09F46FC08091D7
:100590006902803209F46CC080916902803309F4E9
:1005A00069C084E026C080916D0290916E02A09196
:1005B0006F02B0917002892B8A2B8B2B09F484CFA8
:1005C0000E944A0180906D0290906E02A0906F028E
:1005D000B09070026C197D098E099F0986169706E6
:1005E000A806B90608F070CF80916C020E942B0219
:1005F00085E0109272021092940210927102DF91C3
:10060000CF911F910F91FF90EF90DF90CF90BF900F
:10061000AF909F908F9008959D9191938F5F69CF38
:1006200085EEA5CF80916D0290916E02A0916F0230
:10063000B0917002892B8A2B8B2B09F49ECF0E94DC
:100640004A0100916D0210916E0220916F0230916B
:1006500070026C197D098E099F0906171707280774
:10066000390708F08ACFC0CF81E0C3CF80E0C1CF87
:1006700082E0BFCF83E0BDCF1F93CF93DF93EA012A
:10068000122FDC0111968D919C91DC01ED91FC9172
:100690000280F381E02D0995C817D90729F4812F2D
:1006A0000E944C0291E0811190E0892FDF91CF915F
:1006B0001F910895CF93DF93EC018B818823A1F0E4
:1006C000888191E09093710280939302109272025C
:1006D0001092940281E00E944C0291E0811190E01E
:1006E000892FDF91CF9108950E94140281E08B83BE
:1006F000CE010E945A03982F8111E2CFF1CF0895C5
:10070000E091220280912102E81730F4F0E0ED5DE3
:10071000FD4F808190E008958FEF9FEF08959091B5
:100720002202809121022FEF3FEF981748F4E92F22
:10073000F0E0ED5DFD4F208130E09F5F909322025D
:10074000C90108958091210290912202891B990B81
:100750000895CF92DF92EF92FF920F931F93CF9362
:10076000DF937C01CB018A0120917102222389F061
:10077000EB016B01C40ED51ECC15DD0569F0699146
:10078000D701ED91FC910190F081E02DC701099511
:10079000F3CF642F0E94CF01C801DF91CF911F9149
:1007A0000F91FF90EF90DF90CF900895CF93DF935C
:1007B0001F92CDB7DEB76983209171022223F9F031
:1007C00020919402203258F021E030E0FC01338384
:1007D000228390E080E00F90DF91CF910895809187
:1007E0007202E82FF0E0ED58FD4F998190838F5F02
:1007F000809372028093940281E090E0ECCF61E0FC
:10080000CE0101960E94CF01F7CFFC01248131E097
:10081000309371022093930210927202109294020C
:100820008485682B85E992E00E94D60381E00C94D0
:100830004C0290E080E008950F931F93CF93DF93D5
:10084000CDB7DEB728970FB6F894DEBF0FBECDBF89
:10085000DC018E010F5F1F4F86E0F80111928A952F
:10086000E9F715963C9115972AE0832F622F0E9495
:10087000BA0D982F880F890F880F830F8A831496DB
:100880003C911497832F0E94BA0D982F880F890FDF
:10089000880F830F8B8313963C911397832F0E94AD
:1008A000BA0D982F880F890F880F830F8C831296AB
:1008B0003C911297832F0E94BA0D982F880F890FB1
:1008C000880F830F8E8311963C911197832F0E947E
:1008D000BA0D982F880F890F880F830F8F833C9153
:1008E000832F0E94BA0D982F880F890F880F830FCE
:1008F00088878091430290914402FC0124813581D4
:100900002830310580F0208131E03093710220934E
:100910009302109272021092940221E048E050E09B
:10092000B8010E943C0328960FB6F894DEBF0FBEB4
:10093000CDBFDF91CF911F910F9108952F923F92DC
:100940004F925F926F927F928F929F92AF92BF92DF
:10095000CF92DF92EF92FF920F931F93CF93DF938B
:100960005C011B016A01F12CE12CD50114968D91DB
:100970009C9186010E191F098017910708F48C01BC
:10098000F501D0810E944A012B013C0180916B024C
:10099000811172C0C02F013208F0C0E2F1E0F09383
:1009A0006B0221E0C601801B910BE816F90608F4E2
:1009B00020E020936A028FEF809369021092680210
:1009C0008C0F80936702A1E0A093460280914602BB
:1009D000DD0FD82BD093460280914502813009F07B
:1009E00090C0109245020E944A012B013C01809167
:1009F00046028093BB0080916D0290916E02A0919F
:100A00006F02B0917002892B8A2B8B2BA1F00E9470
:100A10004A0120916D0230916E0240916F02509117
:100A20007002641975098609970926173707480760
:100A3000590708F442C08091BC0083FDD8CFB5ECC3
:100A4000B093BC000E944A012B013C0180916B02D3
:100A5000813009F45AC0809168028C1710F4C0915B
:100A60006802A7E4B2E0E3E2F2E080E08C1751F123
:100A70009D9191938F5FFACF80916D0290916E025C
:100A8000A0916F02B0917002892B8A2B8B2B09F4F5
:100A90007DCF0E944A0120916D0230916E024091FB
:100AA0006F0250917002641975098609970926171B
:100AB00037074807590708F069CF80916C020E94F8
:100AC0002B02C0E010922202C0932102C01711062F
:100AD00009F057C041018E0C9F1CE401CE0188191A
:100AE00099098017910798F5D50111968D919C91E0
:100AF000DC01ED91FC910284F385E02D0995899349
:100B0000EDCFE5EEE093BC009DCF80916D0290911A
:100B10006E02A0916F02B0917002892B8A2B8B2BF1
:100B200009F494CF0E944A0120916D0230916E0227
:100B300040916F02509170026419750986099709F6
:100B4000261737074807590708F080CFB6CFE00EC1
:100B5000F11EEC14FD0408F408CF81E0DF91CF9181
:100B60001F910F91FF90EF90DF90CF90BF90AF90CB
:100B70009F908F907F906F905F904F903F902F90BD
:100B8000089580E0EBCFEF92FF920F931F93CF93E6
:100B9000DF9300D000D000D01F92CDB7DEB78C011C
:100BA0001982E0904302F0904402D70114968D918F
:100BB0009C911597892BE9F08C9191E090937102AB
:100BC00080939302109272021092940220E041E00E
:100BD00050E0BE016F5F7F4FC7010E943C03882336
:100BE00041F047E050E0BE016F5F7F4FC7010E94B8
:100BF0009E04E981EF77FA81FB804D815E818F81D0
:100C0000282F30E094E0359527959A95E1F7922FBB
:100C1000990F990F291B220F280FD8012C93852F8C
:100C200090E024E0959587952A95E1F7982F990F04
:100C3000990F891B880F850F11968C931197642F3C
:100C400070E034E0759567953A95E1F7862F880F47
:100C5000880F681B660F640F12966C9312974F2DC6
:100C600050E064E0559547956A95E1F7842F880F29
:100C7000880F481B440F4F0D13964C9313972F2F3B
:100C800030E074E0359527957A95E1F7822F880F4B
:100C9000880F281B220F2F0F14962C9314978E2F3A
:100CA00090E0F4E095958795FA95E1F7982F990FE4
:100CB000990F891B880F8E0F15968C93C801279664
:100CC0000FB6F894DEBF0FBECDBFDF91CF911F915D
:100CD0000F91FF90EF9008950F931F93CF938C0186
:100CE000C62F0E9405046C2F6460C8010E94050491
:100CF0006C2F6B7FC8010E94050483EC90E0019784
:100D0000F1F7CF911F910F9108950F931F93CF93F8
:100D1000DF938C01D62FC42F607F642B0E946C065A
:100D200080E1D89FB00111246C2BC801DF91CF91D5
:100D30001F910F910C946C06CF93DF93CDB7DEB764
:100D400028970FB6F894DEBF0FBECDBF98E0EBE05A
:100D5000F1E0DE01119601900D929A95E1F79091E4
:100D6000A902981708F48FEF90E0880F991F21E0EF
:100D700030E02C0F3D1F820F931FFC0160816068E3
:100D800040E081EA92E028960FB6F894DEBF0FBEED
:100D9000CDBFDF91CF910C94850640E061E081EA00
:100DA00092E00E9485068BE39FE10197F1F7809125
:100DB000AA02882319F080E00C949C06089541E073
:100DC0000E94850681E090E008958F929F92AF92F5
:100DD000BF920F931F93CF93DF93CDB7DEB7A19749
:100DE0000FB6F894DEBF0FBECDBF19A2423008F493
:100DF0004AE08E010F5D1F4F842E912CB12CA12C47
:100E0000A50194010E94C60DE62FB901CA01EA307E
:100E100044F5E05DD801EE938D01232B242B252B87
:100E200079F790E080E0109769F0FD0101900020D3
:100E3000E9F73197AF014A1B5B0BBD0181EA92E0F4
:100E40000E94A101A1960FB6F894DEBF0FBECDBFE0
:100E5000DF91CF911F910F91BF90AF909F908F9096
:100E60000895E95CD7CFCF92DF92EF92FF926C01A9
:100E70008AE0C816D10434F441E060E381EA92E0EC
:100E80000E9485060D2C000CEE08FF084AE0C70101
:100E9000B601F7FE0EC041E06DE281EA92E00E94E9
:100EA000850666277727CB016C197D098E099F0976
:100EB0004AE0FF90EF90DF90CF900C94E506FC01A4
:100EC00001900020E9F73197AF01481B590BBC0195
:100ED00081EA92E00C94A10185ED8093BC008091A1
:100EE0006D0290916E02A0916F02B0917002079610
:100EF000A11DB11D23E0B695A795979587952A95D5
:100F0000D1F72091BC0024FD03C010926B0208951C
:100F100040916D0250916E0260916F02709170026B
:100F2000452B462B472B69F30097A105B10541F0EE
:100F30002AE22A95F1F700C00197A109B109E1CF92
:100F400080916C020C942B021F920F920FB60F929D
:100F500011242F933F938F939F93AF93BF938091CF
:100F6000150290911602A0911702B09118023091CB
:100F7000140223E0230F2D3758F50196A11DB11D52
:100F8000209314028093150290931602A0931702E7
:100F9000B09318028091190290911A02A0911B023D
:100FA000B0911C020196A11DB11D8093190290936E
:100FB0001A02A0931B02B0931C02BF91AF919F91A4
:100FC0008F913F912F910F900FBE0F901F9018950A
:100FD00026E8230F0296A11DB11DD2CF1F920F92BA
:100FE0000FB60F9211242F933F934F935F936F93FC
:100FF0007F938F939F93AF93BF93EF93FF938091D2
:10100000B900887F803609F44AC0F0F5883209F4C7
:10101000A7C018F5803109F49BC0B8F4882309F4FF
:10102000F9C0883009F494C0FF91EF91BF91AF915E
:101030009F918F917F916F915F914F913F912F91F0
:101040000F900FBE0F901F901895883109F488C03B
:10105000803251F78093690214C0803409F49DC036
:1010600040F48033B9F38833F9F68093690285EC54
:10107000B0C0803509F485C0883509F496C088343D
:1010800099F60E946C07D0CF883909F48CC038F5E6
:10109000883729F050F4883611F0803729F683E03C
:1010A00080936B021092070257C0883809F47BC006
:1010B000803919F0803809F0B7CF8091070280326B
:1010C00008F071C0E091070281E08E0F8093070263
:1010D0008091BB00F0E0E951FE4F80833DC0803B32
:1010E00039F0E0F4803A09F479C0883A09F09CCFED
:1010F00084E080936B021092E6011092E501E0918A
:101100001F02F091200209958091E50181110FC025
:1011100081E08093E5011092C50109C0803C09F48B
:10112000A6CF883C09F4A3CF883B09F07DCFE0919E
:10113000E60181E08E0F8093E601F0E0EB53FE4F75
:1011400080818093BB009091E6018091E50129C0E8
:10115000809146028093BB0085EC8093BC0064CFF5
:101160009091680280916702981758F5E0916802A3
:1011700081E08E0F80936802F0E0E95BFD4F808193
:10118000E9CFE091680281E08E0F80936802809140
:10119000BB00F0E0E95BFD4F808390916802809195
:1011A00067029817C8F285E8D8CFE091680281E01D
:1011B0008E0F809368028091BB00F0E0E95BFD4FE9
:1011C000808380916A0281115CCF81E08093450227
:1011D00084EA8093BC0010926B0226CF85EC80934A
:1011E000BC0010926B0280910702803230F4E091D3
:1011F0000702F0E0E951FE4F10826091070270E0B3
:10120000E0911D02F0911E0287EE91E00995109287
:1012100007020ACF1092690234CFFC0190819053EB
:101220009A3008F090E0818180532AE0929F800DEF
:1012300011240895E5E9F2E01382128288EE93E02A
:10124000A0E0B0E084839583A683B78387E191E033
:1012500091838083E1EAF2E01382128289E291E0D5
:1012600091838083118687E2848380E1828782E094
:10127000838714860895CF93DF93CDB7DEB7629747
:101280000FB6F894DEBF0FBECDBF789484B58260F0
:1012900084BD84B5816084BD85B5826085BD85B51A
:1012A000816085BD80916E00816080936E00109298
:1012B0008100809181008260809381008091810013
:1012C00081608093810080918000816080938000A4
:1012D0008091B10084608093B1008091B000816002
:1012E0008093B00080917A00846080937A0080912E
:1012F0007A00826080937A0080917A008160809386
:101300007A0080917A00806880937A001092C10000
:1013100062E082E00E94190162E083E00E9419010C
:1013200062E084E00E94190162E085E00E941901F8
:1013300061E086E00E94190160E086E00E94EB0017
:101340000E9414021092A6028091AC02823018F022
:1013500098E09093A6028093A90262E370E080E097
:1013600090E00E946F016091AD0281EA92E00E94DC
:10137000050468EE73E080E090E00E946F0160E396
:1013800081EA92E00E946C060BE416E4C801019722
:10139000F1F760E381EA92E00E946C06C8010197D0
:1013A000F1F760E381EA92E00E946C0683E592E047
:1013B0000197F1F760E281EA92E00E946C06609189
:1013C000A602606240E081EA92E00E94850684E025
:1013D0008093A70240E06CE081EA92E00E948506DB
:1013E0000E94CD0682E08093A80240E066E081EA98
:1013F00092E00E94850640E062E081EA92E00E946D
:1014000085068BE39FE10197F1F788E08093AD02B9
:1014100060E081EA92E00E9405048091430290918D
:101420004402009711F00E948A0E86E090E00E942C
:10143000EE0D8C0188E6F801808385E992E09283C5
:101440008183138280E290E0958384831093440229
:10145000009343020E941402FF24F394F801F382E4
:10146000C8010E945A03811105C082E591E00E94E3
:101470005F07FFCF1A8A8091430290914402FC01DA
:1014800024813581232B89F02081F09271022093F1
:101490009302109272021092940221E041E050E017
:1014A000BE016E5E7F4F0E943C0341E050E0BE01F2
:1014B0006F5F7F4F80914302909144020E949E048F
:1014C000898190E0880F892F881F990B892B09F457
:1014D00055C04BE050E061E770E0CE0101960E94FC
:1014E000B10DCE010A960E940D098C87E981E15465
:1014F000E33120F50E2E000CFF0BEF57F54F0C9447
:10150000E80DD40B9E0A9E0AE80B9E0AD20B9E0A97
:101510009E0A9E0A940A9E0A9E0ADB0BE60BE40BC7
:101520009E0A9E0A9E0AE20B8A81813609F436C120
:101530008B818E3609F034C186E08D87CE01059609
:101540000E940D098E8748E050E068E670E0CE0109
:1015500001960E94B10DCE0101960E940D098F8760
:10156000CE0104960E940D09888BCE0107960E9439
:101570000D09898BCE010C960E941C0444244394CF
:10158000512C43E0642E712C0BE310E057E1E52E63
:10159000F12C3324339484E0A82EB12C92E0892ED0
:1015A000912C20E0C22E20E0D22E82E00E94C200C8
:1015B0004091090250910A0260910B0270910C0255
:1015C000892B09F007C1452B462B472B99F42FB7E0
:1015D000F8948091150290911602A0911702B09193
:1015E00018022FBF8093090290930A02A0930B0266
:1015F000B0930C022FB7F8948091150290911602C7
:10160000A0911702B09118022FBF4091090250918A
:101610000A0260910B0270910C02841B950BA60BC1
:10162000B70B813D9740A105B10530F180910802CB
:10163000811122C08091110290911202892BE1F454
:1016400020900401232420920401309208020E9479
:10165000CD0680E00E949C0681E391E0211002C04B
:101660008FE391E00E945F0768EE73E080E090E016
:101670000E946F010E94CD0683E00E94C200892B68
:10168000E9F480911102909112029C012D7F21308A
:10169000310509F015C180910F0290911002019659
:1016A000883191050CF007C19093100280930F02CE
:1016B00068EC70E080E090E00E946F0184E00E949E
:1016C000C200892BD9F480911102909112029C01E1
:1016D0002D7F2130310509F010C180910F029091CA
:1016E0001002019797FD04C19093100280930F029E
:1016F00068EC70E080E090E00E946F0185E00E945D
:10170000C200892BB9F4CE010C960E94C3058091CA
:101710001102909112028230910509F42BC108F058
:1017200003C1019709F421C16CE271E080E090E00F
:101730000E946F0180911302882309F445C180E063
:101740000E949C0688E791E00E945F0781E00E946A
:101750009C0688E891E00E945F0761E086E00E94B5
:10176000EB0068EE73E080E090E00E946F0160E0C3
:1017700086E00E94EB0068EE73E080E090E00E945B
:101780006F0162E370E080E090E00E946F01C1149D
:10179000D10409F40ACF0E940000FBCE81E0CDCE37
:1017A00087E0CBCE82E0C9CE8B81823711F484E012
:1017B000C4CE88E0C2CE8B81823711F483E0BDCEE7
:1017C00085E0BBCE89E0B9CE8AE0B7CE8BE0B5CE5E
:1017D0008CE0B3CE452B462B472B09F44DCF80919F
:1017E0000802811128C02FB7F894809115029091BA
:1017F0001602A0911702B09118022FBF4091090262
:1018000050910A0260910B0270910C02841B950B9F
:10181000A60BB70B883E9340A105B10560F48091FB
:101820001302882399F01092130260E086E00E9470
:10183000EB000E94CD061092090210920A0210924B
:101840000B0210920C021092080216CF0E94CD06D5
:101850008091110290911202009799F0039730F550
:101860007092120260921102CE0101960E94C3058D
:101870008C8190E09093100280930F028D8190E014
:1018800010C0509212024092110280910201909178
:1018900003019093100280930F02809100019091B8
:1018A000010190930E0280930D02C5CF1092120297
:1018B00010921102C0CF1092100210920F02F8CEB7
:1018C0008230910519F0049709F0F2CE80910D0253
:1018D00090910E0201968C3391052CF490930E0298
:1018E00080930D02E5CE10920E0210920D02E0CE12
:1018F000F0921002E0920F02FBCE8230910519F0B7
:10190000049709F0F5CE80910D0290910E02019797
:1019100097FD05C090930E0280930D02E9CE1093BF
:101920000E0200930D02E4CE8330910509F447C006
:10193000049709F0F9CE80910D0290910F022E8547
:101940003D854C8549833A832B839C838D831E82FE
:10195000CE0101960E941C041092120210921102F4
:101960000E94CD068CE691E01FC0909212028092F8
:101970001102DACE80910F02909110029093030130
:101980008093020180910D0290910E0290930101CB
:101990008093000130920401109212021092110201
:1019A0000E94CD068BE591E00E945F0768EE73E030
:1019B00080E090E00E946F010E94CD06B5CEB0920B
:1019C0001202A0921102B0CE8091110290911202E7
:1019D0008330910598F5019708F45BC080E00E9480
:1019E0009C0684EA91E00E945F0781E00E949C06C9
:1019F0008091110290911202019709F0ACC081EB25
:101A000091E00E945F0780910F02909110020E9466
:101A1000330782EA91E00E945F0780911102909162
:101A20001202029799F581EB91E00E945F07809185
:101A30000D0290910E020E943307A3CE059708F085
:101A4000A0CE80E00E949C0683EB91E00E945F079D
:101A500081E00E949C0680911102909112020397EE
:101A600009F07CC081EB91E00E945F0780910F023A
:101A7000909110020E94330782EA91E00E945F0772
:101A80008091110290911202049769F28DE991E020
:101A9000CCCFCE0101960E94C30580E00E949C0637
:101AA00088E991E00E945F078C8190E00E943307F3
:101AB00082EA91E00E945F078D8190E00E943307E7
:101AC00082EA91E00E945F078E8190E00E943307D6
:101AD00081E00E949C06809104018823C9F18BE378
:101AE00091E00E945F078FE991E00E945F0780917B
:101AF0000201909103010E94330782EA91E00E9463
:101B00005F0780910001909101010E94330780914D
:101B10000401882309F435CECE0101960E94C30545
:101B20002C8180910201909103012817190609F078
:101B300028CE2D818091000190910101281719066E
:101B400009F01FCE8E8181111CCE3092130219CE66
:101B50008DE491E0C6CF8DE991E053CF8DE991E01E
:101B600083CFFB01DC0102C005900D924150504033
:101B7000D8F70895991B79E004C0991F961708F0CB
:101B8000961B881F7A95C9F780950895A1E21A2EB1
:101B9000AA1BBB1BFD010DC0AA1FBB1FEE1FFF1F11
:101BA000A217B307E407F50720F0A21BB30BE40B61
:101BB000F50B661F771F881F991F1A9469F76095A8
:101BC0007095809590959B01AC01BD01CF01089562
:101BD000EE0FFF1F0590F491E02D09940F931F93D2
:101BE000CF93DF938230910510F482E090E0E09192
:101BF000B002F091B10230E020E0B0E0A0E0309718
:101C000099F42115310509F44AC0281B390B2430F9
:101C10003105D8F58A819B816115710589F1FB0138
:101C200093838283FE0111C040815181028113811F
:101C300048175907E0F04817590799F4109761F0D1
:101C400012960C93129713961C933296CF01DF9144
:101C5000CF911F910F9108950093B0021093B1029C
:101C6000F4CF2115310551F04217530738F0A9017F
:101C7000DB019A01BD01DF01F801C1CFEF01F9CF0E
:101C80009093B1028093B002CDCFFE01E20FF31F1B
:101C9000819391932250310939832883D7CF2091A2
:101CA000AE023091AF02232B41F420910701309115
:101CB00008013093AF022093AE02209105013091CC
:101CC00006012115310541F42DB73EB740910901B8
:101CD00050910A01241B350BE091AE02F091AF0246
:101CE000E217F307A0F42E1B3F0B2817390778F0F3
:101CF000AC014E5F5F4F2417350748F04E0F5F1F52
:101D00005093AF024093AE02819391939FCFF0E046
:101D1000E0E09CCFCF93DF930097E9F0FC0132978E
:101D200013821282A091B002B091B102ED0130E0B5
:101D300020E01097A1F420813181820F931F209120
:101D4000AE023091AF022817390709F061C0F09355
:101D5000AF02E093AE02DF91CF910895EA01CE1772
:101D6000DF07E8F54A815B819E0141155105B1F716
:101D7000E901FB83EA8349915991C40FD51FEC1700
:101D8000FD0761F4808191810296840F951FE9011E
:101D900099838883828193819B838A83F0E0E0E04A
:101DA00012968D919C9113970097B9F52D913C91C6
:101DB0001197CD010296820F931F2091AE023091B0
:101DC000AF022817390739F6309751F51092B10252
:101DD0001092B002B093AF02A093AE02BCCFD383F7
:101DE000C28340815181840F951FC817D90761F4C0
:101DF0004E5F5F4F88819981480F591F51834083FF
:101E00008A819B81938382832115310509F0B0CFAC
:101E1000F093B102E093B0029ECFFD01DC01C0CF90
:101E200013821282D7CFF894FFCF1E000700010063
:101E300000B20280000000400014005400000000C6
:101E400000D603A90319047F03A2038F03800300B4
:101E5000000000DF06A1011904CE0142414F2054C9
:101E60004855433A204F4E200042414F2054485598
:101E7000433A204F4646004F464620004C6F6920AB
:101E800052544321004461204C75752042616F20FB
:101E90005468756321004461204C75752047696F53
:101EA000210044454E2047494F20524F49212121CE
:101EB000210042616D204D4F4445206465207461CE
:101EC000740054696D653A200048656E3A004341DC
:101ED000492042414F2054485543003E0043414968
:0E1EE0002047494F20544855432054450000E8
:107E0000112484B714BE81FFF0D085E080938100F7
:107E100082E08093C00088E18093C10086E0809377
:107E2000C20080E18093C4008EE0C9D0259A86E02C
:107E300020E33CEF91E0309385002093840096BBD3
:107E4000B09BFECF1D9AA8958150A9F7CC24DD24C4
:107E500088248394B5E0AB2EA1E19A2EF3E0BF2EE7
:107E6000A2D0813461F49FD0082FAFD0023811F036
:107E7000013811F484E001C083E08DD089C08234E0
:107E800011F484E103C0853419F485E0A6D080C0E4
:107E9000853579F488D0E82EFF2485D0082F10E0AE
:107EA000102F00270E291F29000F111F8ED06801E7
:107EB0006FC0863521F484E090D080E0DECF843638
:107EC00009F040C070D06FD0082F6DD080E0C81688
:107ED00080E7D80618F4F601B7BEE895C0E0D1E017
:107EE00062D089930C17E1F7F0E0CF16F0E7DF06D8
:107EF00018F0F601B7BEE89568D007B600FCFDCFD4
:107F0000A601A0E0B1E02C9130E011968C91119780
:107F100090E0982F8827822B932B1296FA010C0160
:107F200087BEE89511244E5F5F4FF1E0A038BF0790
:107F300051F7F601A7BEE89507B600FCFDCF97BE46
:107F4000E89526C08437B1F42ED02DD0F82E2BD052
:107F50003CD0F601EF2C8F010F5F1F4F84911BD097
:107F6000EA94F801C1F70894C11CD11CFA94CF0C13
:107F7000D11C0EC0853739F428D08EE10CD085E9AC
:107F80000AD08FE07ACF813511F488E018D01DD067
:107F900080E101D065CF982F8091C00085FFFCCF94
:107FA0009093C60008958091C00087FFFCCF809118
:107FB000C00084FD01C0A8958091C6000895E0E648
:107FC000F0E098E1908380830895EDDF803219F02E
:107FD00088E0F5DFFFCF84E1DECF1F93182FE3DFCA
:107FE0001150E9F7F2DF1F91089580E0E8DFEE27F6
:047FF000FF270994CA
:027FFE00040479
:00000001FF
