:020000040000FA
:100000000C94F3020C941B030C941B030C941B0321
:100010000C941B030C941B030C941B030C941B03E8
:100020000C941B030C941B030C941B030C941B03D8
:100030000C941B030C941B030C941B030C941B03C8
:100040000C9457220C941B030C94C7220C94A122ED
:100050000C941B030C941B030C941B030C941B03A8
:100060000C941B030C941B034602000000FF0800C5
:10007000053E5B4F5B3E053E6B4F6B3E051C3E7C79
:100080003E1C05183C7E3C18051C577D571C051C62
:100090005E7F5E1C0400183C1805FFE7C3E7FF0401
:1000A0000018241805FFE7DBE7FF0530483A060E85
:1000B00005262979292605407F05050705407F0586
:1000C000253F055A3CE73C5A057F3E1C1C080508A5
:1000D0001C1C3E7F0514227F221405FFFFFFFFFF3B
:1000E00005F0F0F0F0F003FFFFFF05000000FFFF58
:1000F000050F0F0F0F0F0508047E04080510207E62
:1001000020100508082A1C0805081C2A080805AA4A
:10011000005500AA05AA55AA55AA0530383E383020
:1001200005060E3E0E06020000015F0307000705EC
:10013000147F147F1405444AFF4A32056313086490
:10014000630536494936480107033E4141034141B1
:100150003E05082A1C2A080508083E08080260E037
:100160000408080808026060056010080403053EE2
:100170005149453E0304027F0571494949460541FD
:1001800049494936050F0808087F054F4949493153
:10019000053E4949493005030101017F05364949BA
:1001A000493605064949493E026C6C026CEC03086D
:1001B0001422041414141403221408050159090903
:1001C00006053E415D594E057E0909097E057F49B8
:1001D000494936053E41414141057F4141413E0586
:1001E0007F49494941057F09090901053E414149C6
:1001F00079057F0808087F03417F4105304141416F
:100200003F057F08142241057F40404040057F02A2
:100210000C027F057F0408107F053E4141413E05E9
:100220007F09090906053E4141617E057F091929BB
:10023000460546494949310501017F0101053F4015
:1002400040403F051F2040201F053F4038403F05EC
:1002500063140814630503047804030561514945D8
:1002600043037F41410503040810600341417F05BA
:100270000402010204048080808003010204043827
:1002800044447C047F44443804384444440438449F
:10029000447F043854545804047E05010418A4A46F
:1002A0007C047F040478017D0384857C047F10280E
:1002B00044017F057C04780478047C0404780438C5
:1002C00044443804FC24241804182424FC047C042A
:1002D0000408045854543403047F04043C40407C14
:1002E000041C20407C053C4030403C046C10106CE9
:1002F000041CA0A07C046454544C04083641410101
:100300007F04414136080402010201057F41414159
:100310007F053E55555541053844443844057C2AEF
:100320002A3E14057E0202060605027E027E0205B2
:100330006355494163053844443C0405407E201E12
:10034000200506027E0202086313086463006060F1
:10035000052A2A2A2A2A03514A4403444A510500FD
:1003600000FF010303E080FF053612362436030246
:100370000502021818021010053040FF0101041F89
:1003800001011E000000000901017F017F020C0233
:100390007F0000000000000100017D0418247E247D
:1003A00004447E454105221C141C2205012A7C2A96
:1003B000010177044E55553903020002077E81BDC5
:1003C000A5A5817E0326292F0508142A14220408D6
:1003D00008081803080808077E81BD95A9817E05D5
:1003E00001010101010302050203242E2403191552
:1003F000120315150A02020104F8204078050609C7
:100400007F017F021818040080A0C003121F100390
:100410002629260522142A140808402F1008041E35
:10042000117C08402F10080462554C0915553F10E7
:1004300008041E117C053048484D400578151614F7
:1004400078057814161578057A1514157A05781636
:10045000151679057815141578057814151478078C
:100460007E09097F494941059EA1612121057C54EE
:10047000554644057C54564544057E55544546052D
:100480007C5554454403457E4403447E4503467DE4
:100490004603457C4505087F49413E057C0A1122FB
:1004A0007D053844454638053844464538053A45C3
:1004B00044453A05384645463905384544453805EA
:1004C0002214081422057C625A463E053C404142F3
:1004D0003C053C4042413C053C4241423C053C41DC
:1004E00040413C0502047A0502043F12120C057ECD
:1004F00049494E30043845467C043844467D04382A
:1005000046457E043A45467D043845447D04304ADC
:100510004D7A0720545438545458049CA262220443
:10052000385556580438545659043856555A0438D4
:1005300055545902017A027A0103027902030278C2
:100540000204304B4B3C047A090A710430494A30AA
:100550000430484A3104304A49320432494A3104AD
:10056000394444390508082A08080438544C38042A
:10057000384142780438404279043842417A043A9A
:1005800040407A0418A0A27904FC282810041AA07C
:10059000A07A000000080002010000030407000028
:1005A00000000000000000000000250028002B00D3
:1005B00000000000240027002A00040404040404AE
:1005C0000404020202020202030303030303010202
:1005D00004081020408001020408102001020408D1
:1005E0001020F922EA2511241FBECFEFD8E0DEBF8C
:1005F000CDBF11E0A0E0B1E0E4E4F1E502C0059078
:100600000D92AE3DB107D9F723E0AEEDB1E001C0E8
:100610001D92AB30B207E1F712E0C2EFD2E004C0A6
:100620002197FE010E945327C13FD107C9F70E94BD
:1006300043230C9495280C94000090E0FC01E253B5
:10064000FA4F249186549A4FFC018491882399F0A3
:1006500090E0880F991FFC01E055FA4FA591B491E5
:10066000FC01EA55FA4F859194918FB7F894EC917B
:10067000E22BEC938FBF0895CF92DF92EF92FF921F
:100680000F931F93FC0180A5882331F0A5A1B6A18B
:100690009D967C936E939C9780A5882331F0A5A1AD
:1006A000B6A157965C934E93569780A5882371F018
:1006B000A5A1B6A118963C932E9317971A963C9332
:1006C0002E9319971C961C930E931B9780A5882335
:1006D00079F005A0F6A1E02DE114F10419F4EE245F
:1006E000E394F12CF18EE08ED38EC28E16861586A1
:1006F0001F910F91FF90EF90DF90CF90089582951A
:1007000090E09C0135952795359527952373880FA3
:10071000991F880F991F8C7C282B30E0C901959573
:1007200087958575220F331F2A7A822B0895CF93E0
:10073000DF93262F2695382F70E0680F791FFC0174
:100740008E2F831B821750F4819161507109DB0158
:100750009C91EF01219798838C93F2CFDF91CF91F9
:100760000895482FFC018E2F841B8617E0F42191F9
:1007700030E0C901959587958575220F331F2A7A38
:10078000822B90E09C01359527953595279523730D
:10079000880F991F880F991F8C7C822B8295DF010F
:1007A00011978C93E0CF089590E0FC01EE56FA4F3C
:1007B0002491FC01E253FA4F3491FC01E654FA4FC4
:1007C000E491EE23C9F0222339F0233001F1A8F49B
:1007D000213019F1223029F1F0E0EE0FFF1FEA5528
:1007E000FA4FA591B4918FB7F894EC91611126C09E
:1007F00030953E233C938FBF08952730A9F02830D1
:10080000C9F0243049F7809180008F7D03C080912A
:1008100080008F7780938000DFCF84B58F7784BD91
:10082000DBCF84B58F7DFBCF8091B0008F77809335
:10083000B000D2CF8091B0008F7DF9CF3E2BDACFC0
:10084000AF92BF92CF92DF92EF92FF920F931F93DE
:10085000CF93DF936C017B018B01040F151FEB011C
:100860005E01AE18BF08C017D10759F06991D601D3
:10087000ED91FC910190F081E02DC6010995892B45
:1008800079F7C501DF91CF911F910F91FF90EF9004
:10089000DF90CF90BF90AF900895FC01538D448DB1
:1008A000252F30E0842F90E0821B930B541710F01B
:1008B000CF96089501970895FC01918D828D981728
:1008C00061F0A28DAE0FBF2FB11D5D968C91928D00
:1008D0009F5F9F73928F90E008958FEF9FEF089531
:1008E000FC01918D828D981731F0828DE80FF11DFA
:1008F000858D90E008958FEF9FEF0895FC01918D15
:10090000228D892F90E0805C9F4F821B91098F730D
:100910009927089580E492E00E947E0421E0892BCB
:1009200009F420E0822F089580E090E0892B29F0DF
:100930000E948A0481110C9400000895FC01A48D8A
:10094000A80FB92FB11DA35ABF4F2C91848D90E0F1
:1009500001968F739927848FA689B7892C93A089D4
:10096000B1898C91837080648C93938D848D98135E
:1009700006C00288F389E02D80818F7D80830895F1
:10098000EF92FF920F931F93CF93DF93EC0181E0DF
:10099000888F9B8D8C8D98131AC0E889F989808186
:1009A00085FF15C09FB7F894EE89FF896083E889B9
:1009B000F98980818370806480839FBF81E090E0AB
:1009C000DF91CF911F910F91FF90EF900895F62E38
:1009D0000B8D10E00F5F1F4F0F731127E02E8C8DD2
:1009E0008E110CC00FB607FCFACFE889F989808117
:1009F00085FFF5CFCE010E949E04F1CFEB8DEC0F69
:100A0000FD2FF11DE35AFF4FF0829FB7F8940B8F33
:100A1000EA89FB8980818062CFCFCF93DF93EC019D
:100A2000888D8823B9F0AA89BB89E889F9898C91D6
:100A300085FD03C0808186FD0DC00FB607FCF7CF92
:100A40008C9185FFF2CF808185FFEDCFCE010E9492
:100A50009E04E9CFDF91CF910895CF92DF92EF927C
:100A6000FF921F93CF93DF93DC0158961C92589707
:100A700088E059968C9359975A961C925A975C968F
:100A80001C921E925B978FEF90E05E969C938E93E4
:100A90005D9790961C921E925F9756968D919C91B1
:100AA0005797009709F478C0FC012491263409F087
:100AB00031C03196E491E13009F453C022E030E0D6
:100AC000E23021F5FC01329624913196E49130E038
:100AD000322F22272E0F311D5C963C932E935B976D
:100AE000FC01349624913196E49130E0322F222794
:100AF0002E0F311D5E963C932E935D97FC0136962A
:100B0000E4915996EC93599727E030E090963C9306
:100B10002E935F975F96CD90DC909097F12CE12C0F
:100B20005B962D913C915C975D96CD91DC915E97A3
:100B300010E0C217D30770F1FC01EC0DFD1D4491CC
:100B4000141708F4142F50E070E060E04F5F5F4F1F
:100B50006F4F7F4FC40ED51EE61EF71E2F5F3F4F0F
:100B6000E8CFFC013296E491F0E05C96FC93EE93C2
:100B70005B97FC013396E491F0E05E96FC93EE9374
:100B80005D97FC013496E4915996EC93599725E0D2
:100B900030E0BCCF5A961C93DF91CF911F91FF900C
:100BA000EF90DF90CF900895FC018385681738F5AA
:100BB0002485358579E0679F200D311D11248481BE
:100BC00050E09381992371F0882331F087E090E021
:100BD000FC01E41BF50BAF01240F351FF9018081E7
:100BE0000C947F03882331F087E090E0BC01641B04
:100BF000750BAB01240F351FF9018081089580E04A
:100C000008958F929F92AF92BF92CF92DF92EF9210
:100C1000FF92CF93DF93FC01242F30E08381882360
:100C200009F447C087E090E0821B930B91E001C07C
:100C3000990F8A95EAF78385681708F040C02485E4
:100C40003585A90189E0689F400D511D1124BA0125
:100C5000E48130E020E080E0A7E0B0E0C12CD12CBE
:100C60007601C394F22FAD01421B530BE11101C079
:100C7000A901460F571FEA014881492351F0460157
:100C8000570104C0880C991CAA1CBB1CFA95D2F70A
:100C900088292F5F3F4F2830310521F7DF91CF9111
:100CA000FF90EF90DF90CF90BF90AF909F908F908C
:100CB000089591E001C0990F4A95EAF7BCCF80E012
:100CC000EDCFFC01228121110C9401060C94D40576
:100CD000462F477023E0769567952A95E1F70C94A7
:100CE0006106FC01848D90A1A6A5B7A591FD15C054
:100CF000882381F0808D918D0597A9F481E024A54A
:100D000035A52A173B0709F080E080AB1197B7A7FC
:100D1000A6A70895828D938DEFCF882379F0808DDB
:100D2000918D059759F7CD01019697A786A781E088
:100D300011969C91911180E080AB0895828D938DE6
:100D4000F0CFFC01868997898230910591F423893F
:100D5000348936A325A331A720A78230910561F4F9
:100D60002189328933A722A7029749F08FEF87A301
:100D7000089521893289EDCF23893489F3CF81E029
:100D8000F6CFCF93DF9300D0CDB7DEB769831A8259
:100D9000DC01ED91FC910084F185E02DBE016F5FD7
:100DA0007F4F099581E090E00F900F90DF91CF91F8
:100DB0000895089590E080E00895CF92DF92EF9239
:100DC000FF920F931F93CF93DF93EC0188858823C5
:100DD000A1F08091EA01882361F08FB7F894909197
:100DE000EA01913041F59DB39093E9019DB39DBB1C
:100DF0008FBF80E58CBD81E08DBD60E08F810E945A
:100E0000D40388858823D1F030E020E08B8590E002
:100E1000880F991F28173907C8F5EE85FF85E20F5F
:100E2000F31F80818EBD00000DB407FEFDCF8EB58F
:100E30002F5F3F4FEBCF8093E901DBCF10E000E065
:100E40008B8590E0880F991F08171907F8F4EE8535
:100E5000FF85E00FF11FE080DE80CD8088E0F82E76
:100E60006E2D661F6627661F8C2D0E94D403EE0C24
:100E700061E08D2D0E94D40360E08D2D0E94D4038B
:100E8000FA94F110EDCF0F5F1F4FDACF61E08F8141
:100E90000E94D4038885882371F08091EA01882319
:100EA00051F09FB7F8942091EA018091E901213037
:100EB00059F48DBB9FBFDF91CF911F910F91FF9090
:100EC000EF90DF90CF9008958FBFF5CFFC01438561
:100ED00050E0440F551F70E060E0868597850C94C4
:100EE0008728BF92CF92DF92EF92FF920F931F93CA
:100EF000CF93DF93FC012385621708F04EC0EC010D
:100F0000F9E06F9F70011124D12CC12C062F10E045
:100F1000BB24B394BC0CEC85FD85EE0DFF1D8085D4
:100F200090E00C2C02C0959587950A94E2F780FF1B
:100F300027C0CE010E9466078B858150990B801BCC
:100F4000910B880F991F2E853F85820F931FFC01FF
:100F5000B082EC85FD85EE0DFF1DEC0DFD1D408181
:100F60008B858150990B801B910B880F991F2E85C3
:100F70003F85820F931FFC014183CE010E94DD0655
:100F8000FFEFCF1ADF0A88E0C816D10409F68C8576
:100F90009D85E80EF91EF7011086DF91CF911F9114
:100FA0000F91FF90EF90DF90CF90BF9008950F9337
:100FB0001F93CF93DF93EC01162F042F822F9B8179
:100FC00091110E947F0399E0199F90011124AC8533
:100FD000BD85A20FB31F602F70E09C8147E050E0F9
:100FE000461B570B911101C0AB01A40FB51F8C9389
:100FF000EC85FD85E20FF31F20858C818823F1F0BD
:1010000047E050E0461B570B81E090E0A0E0B0E0E5
:1010100004C0880F991FAA1FBB1F4A95D2F7822BC5
:1010200080878C89882321F0612FCE010E9471076F
:1010300081E0DF91CF911F910F91089581E090E0C1
:10104000A0E0B0E004C0880F991FAA1FBB1F0A953B
:10105000D2F7E5CF9F92AF92BF92CF92DF92EF92FD
:10106000FF920F931F93CF93DF93FC0189E0689F5A
:10107000E001112481E090E0A0E0B0E06C017D018E
:10108000042E04C0CC0CDD1CEE1CFF1C0A94D2F70D
:10109000BC2C7C2D709507E010E0041B110904C0E6
:1010A000880F991FAA1FBB1F0A95D2F7A82E382FA9
:1010B000309590E080E0022F10E027E0E22EF12C46
:1010C000AC01A485B585AC0FBD1F24819380680158
:1010D000082E02C0D594C7940A94E2F7C0FE2AC035
:1010E000222319F0A701481B590BA40FB51F2C91FF
:1010F0004B2D91104A2D242B2C930196883091056D
:10110000F9F684859585C80FD91F8FEF8887848964
:10111000882319F0CF010E94710781E0DF91CF9100
:101120001F910F91FF90EF90DF90CF90BF90AF9005
:101130009F900895222319F0A701481B590BA40F73
:10114000B51F2C91472F9110432F2423D5CFFC019D
:1011500052813385552321F0631730F40C942A080B
:10116000631710F40C94D70780E00895242F462FBE
:10117000477033E0769567953A95E1F70C94A708A8
:10118000FC0152813385552331F0631750F4483008
:1011900041F00C94D707631720F4483011F00C94F9
:1011A0002A0880E00895CF92DF92EF92FF920F938A
:1011B0001F93CF93DF93FC01722F82815385882385
:1011C00009F45DC0651708F0BEC0283009F4BBC043
:1011D00009E0609F70011124848595858E0D9F1D07
:1011E00050E0A22FB0E024812223B9F127E030E0C3
:1011F000E901C41BD50BAE012A1B3B0B480F591F3D
:10120000EA014881820F931FEC014883848595850C
:10121000E701C80FD91F28858481882301F147E0A1
:1012200050E04A1B5B0B81E090E0A0E0B0E004C01E
:10123000880F991FAA1FBB1F4A95D2F7822B888758
:101240008489811118C081E0DF91CF911F910F91A6
:10125000FF90EF90DF90CF9008959D01CFCF81E078
:1012600090E0A0E0B0E004C0880F991FAA1FBB1F48
:101270007A95D2F7E3CFCF010E947107E4CFA42F74
:10128000B0E09381992309F44FC027E030E02A1B96
:101290003B0B91E001C0990F2A95EAF76517A0F67C
:1012A000783091F2D9E06D9FA001112401E010E0A7
:1012B00020E030E068017901072E04C0CC0CDD1C71
:1012C000EE1CFF1C0A94D2F7DC2DCC2DC095A7E0B4
:1012D000B0E0A71BB10904C0000F111F221F331F6C
:1012E000AA95D2F7F02E009530E020E0A485B585D0
:1012F000A40FB51FA20FB31F8C917381182F192350
:10130000D9F0711117C07D2F872B8C932F5F3F4F22
:101310002830310559F784859585480F591F8FEF7F
:10132000DA0118968C938CCF91E001C0990F4A9501
:10133000EAF7B4CF7F2DE8CF711103C07C2F87234C
:10134000E4CF702FFCCF80E07FCF8F929F92AF923F
:10135000BF92CF92DF92EF92FF920F931F93CF93A2
:10136000DF93CDB7DEB728970FB6F894DEBF0FBE78
:10137000CDBF8C01D62E29E0629F70011124FA01A5
:101380003197E730F10558F4E853F64F0C945327A2
:101390001B0A4D0A830ABA0AFB0A3B0B5B0BDC01F2
:1013A00012968C918823C1F130E020E0D8011C9680
:1013B000ED91FC911D97EE0DFF1DE20FF31F808153
:1013C00013969C91992331F190E0959587958083B0
:1013D0002F5F3F4F2830310549F7F8018485958507
:1013E000E80EF91E8FEFD70118968C9381E02896AE
:1013F0000FB6F894DEBF0FBECDBFDF91CF911F9126
:101400000F91FF90EF90DF90CF90BF90AF909F90A3
:101410008F900895880FDBCF87E090E0D8011C966D
:10142000ED91FC91EE0DFF1DE80FF91F2081218346
:101430000197A0F7D2CFFC0182818823E1F030E050
:1014400020E0D8011C96ED91FC911D97EE0DFF1D3B
:10145000E20FF31F808113969C91992341F0880F2E
:1014600080832F5F3F4F2830310559F7B6CF90E08A
:1014700095958795F5CF81E090E0D8011C96ED9188
:10148000FC91EE0DFF1DE80FF91F2081319720839D
:1014900001968830910589F7A0CFFC01C28085892B
:1014A0008823F9F040E0C801CC20C1F00E94D405A7
:1014B0008983CC20C1F020E0CC24C394C20E4C2DF3
:1014C0006D2DC8010E94D3082C2D2730A9F7298142
:1014D00047E06D2DC8010E94C0087FCF0E94010621
:1014E000E7CF1982E6CF87E090E0D8011C96ED9116
:1014F000FC91EE0DFF1DE80FF91F2081220F2083C4
:10150000019798F7E4CFFC01C28085898823D9F040
:1015100047E0C801CC20A1F00E94D4058983CC20EB
:10152000A1F028E0CC24CA94C20E4C2D6D2DC80128
:101530000E94D3082C2DC110F5CF298140E0C9CFDE
:101540000E940106EBCF1982EACF30E020E0D801FB
:101550001C96ED91FC91EE0DFF1DE20FF31F8081B3
:1015600090E09595879580832F5F3F4F2830310518
:1015700071F7E3CFFC0182818823C1F0B12CA12C4B
:10158000D8011C96CD90DC90CE0CDF1CCA0CDB1C65
:10159000F60180810E947F03D6018C93BFEFAB1AC6
:1015A000BB0AE8E0AE16B10459F717CF30E020E0EF
:1015B00047E050E0D8011C968D919C918E0D9F1DA7
:1015C000FC01E20FF31FD080BA01621B730B860F80
:1015D000971FDC018C918083D8011C96ED91FC91C2
:1015E000EE0DFF1DE60FF71FD0822F5F3F4F243017
:1015F000310501F7F2CEFC018281882329F130E028
:1016000020E047E050E0D8011C968D919C918E0D12
:101610009F1DFC01E20FF31FD080BA01621B730B08
:10162000860F971FDC018C918083D8011C96ED9169
:10163000FC91EE0DFF1DE60FF71FD0822F5F3F4F8D
:101640002430310501F7C9CEB12CA12CF801C48496
:10165000D584CE0CDF1CCA0CDB1CD6018C910E94F9
:101660007F03F6018083FFEFAF1ABF0A28E0A216BE
:10167000B10461F7B2CECE0101965C014C0187E066
:10168000C82E4C2D6D2DC8010E946106D4018D938A
:101690004D01CA94BFEFCB12F4CFC12CF5012191BB
:1016A0005F014C2D6D2DC8010E94C008C394F8E065
:1016B000CF12F4CF92CE90E080E0D8011C96ED914D
:1016C000FC91EE0DFF1DE80FF91F2081209520836E
:1016D00001968830910589F780CECF92DF92EF9204
:1016E000FF920F931F93CF93DF93EC01DD24D394EC
:1016F000F12CE12C01E010E0B9E0CB2ECE010E94EC
:10170000660798010E2C02C0220F331F0A94E2F7DD
:10171000E0E090E08B85E81798F5EC9DA00111249E
:10172000AC85BD85A40FB51F18966C9170E062233F
:101730007323672B19F16E2F70E08150990B861B74
:10174000970B880F991FAE85BF85A80FB91FDC9234
:10175000AC85BD85A40FB51FAE0DBF1DFC918B855B
:101760008150990B861B970B880F991F4E855F85BB
:10177000840F951FDC011196FC9391E0EF5FCACFB7
:10178000992319F0CE010E94DD06BFEFEB1AFB0A88
:10179000D39488E0E816F10409F0B0CF80E099E036
:1017A0002B85821748F4EC85FD85899FE00DF11D9E
:1017B000112410868F5FF4CFDF91CF911F910F918D
:1017C000FF90EF90DF90CF900895CF93DF93C9E023
:1017D00078E05FEF4617B0F06C9F90011124FC0198
:1017E000A485B585A20FB31FFD01D72F1192DA95FD
:1017F000E9F7DC011C96ED91FC91E20FF31F508795
:101800006F5FE8CFFC012489222321F0DF91CF9183
:101810000C946D0BDF91CF9108956F927F928F9210
:101820009F92AF92BF92CF92DF92EF92FF920F936F
:101830001F93CF93DF93CDB7DEB729970FB6F894F8
:10184000DEBF0FBECDBF8C01E62EF42E5901D12C88
:10185000461708F4D7C0DC015496DC905497549690
:101860001C9224303105B8F522303105D0F52130F5
:10187000310509F4DDC0D80155968C91882309F40F
:1018800087C0B8E0FB9EB0011124695F7F4FC8019B
:101890000E946806C82EAE2CB12C8F2D0F2C000C88
:1018A000990B8A159B050CF48AC050E040E06F2D1F
:1018B000C8010E94A50999249A949F0C47E0692DBC
:1018C000C8010E946106282F40E06F2DC8010E94C8
:1018D000A708F92CE2CF2430310561F0283031051A
:1018E00050F6A5016E2DC8010E94A509E394FE14CF
:1018F000C0F77FC0642F70E0AE2CB12C4B018A186A
:101900009B08BFEF8B1A9B0A97FE03C0EFEF8E1A5E
:101910009E0A95948794712C29E0C22E472D50E0A1
:10192000481559050CF0D2C0F80124853585FA0117
:10193000EA0DFB1DCE9EC001CF9E900D1124820F9B
:10194000931FFC01DE0111966C2C01900D926A949C
:10195000E1F7FB01E41BF50BCE9EA001CF9E500DDD
:101960001124F901E40FF51FDC018C2D01900D927B
:101970008A95E1F7F801A485B585A40FB51FFE018E
:1019800031968C2D01900D928A95E1F77394C6CF14
:10199000F801A288B388A114B10479F0F8E0FF9EA1
:1019A000B0011124695F7F4FC8010E946806482F6B
:1019B00070E060E08F2DF5010995C12C6CCFD80146
:1019C0005096ED91FC915197309749F055968C9136
:1019D000811105C070E060E08E2D0995C82EB5011B
:1019E00083E0660F771F8A95E1F74C2DC8010E94AE
:1019F000B608D8015496DC92DD2009F471C0C80104
:101A00000E946D0B8D2D29960FB6F894DEBF0FBE88
:101A1000CDBFDF91CF911F910F91FF90EF90DF909D
:101A2000CF90BF90AF909F908F907F906F900895D0
:101A3000FC0185898823B1F1F8E06F9FB001112482
:101A4000C8010E946806C82E41E050E06E2DC80112
:101A50000E94A509BB24B394BE0C40E06B2DC801C5
:101A60000E946106282F47E06E2DC8010E94A7083A
:101A7000EB2CFB1448F7D8015096ED91FC9151974F
:101A8000309749F055968C91811105C061E070E066
:101A90008F2D0995C82EB8E0FB9EB0011124695F17
:101AA0007F4FA3CFA288B388A114B10469F0B8E036
:101AB0006B9FB0011124C8010E946806482F61E0A5
:101AC00070E08E2DF5010995C12CBECF44E050E0A9
:101AD0006E2DC8010E94A509E394FE14B8F789CFC2
:101AE000DD24D3948FCFCF93DF93EC014CA16BA176
:101AF000461720F0888199810E94E50B8D8D8823FF
:101B000051F027E030E04CA16BA188819981DF91F1
:101B1000CF910C940D0CDF91CF910895CF92DF926D
:101B2000EF92FF920F931F93CF93DF93EC01D62E8A
:101B3000C42E790180E04617E0F02A30310508F024
:101B400069C0CE010E94660792E0E916F10409F42B
:101B500053C0C0F4E114F10429F1F1E0EF16F104EF
:101B600009F443C0D394CD1478F7CE010E94DD066A
:101B700081E0DF91CF911F910F91FF90EF90DF9067
:101B8000CF90089583E0E816F104E9F194E0E916B6
:101B9000F10441F781E00115110509F480E0819518
:101BA00099E006C081E00115110509F080E09CE094
:101BB0004D2D50E02B852150330B241B350B220F6C
:101BC000331F6E857F85260F371FF90190832B8584
:101BD0002150330B241B350B220F331F4E855F859D
:101BE000240F351FF9018183BDCF802F08301105E7
:101BF0000CF087E09BE0DCCF802F003111050CF06A
:101C00008FE09AE0D5CF81E00115110509F480E05D
:101C10009FE0CECF81E00130110509F080E0FBE0CC
:101C2000EF16F10449F08C8B0130110509F0A0CFBB
:101C3000CE010E946D0B9CCF8D8B9ACF0F931F937B
:101C4000FC0161A3062F10E022E030E044A163A173
:101C5000808191810E948E0D1F910F9108950F93A5
:101C60001F939B018A01FC014385415060E00E9463
:101C70008E0D1F910F9108950F931F93CF93FC0129
:101C8000A081B1815A96CC9186A9C80F83A98C17DF
:101C9000A0F48F0184A995A9009711F00E94F5275F
:101CA000F801C3AB8C2F90E0009711F481E090E035
:101CB0000E945927F80195AB84ABCF911F910F91EA
:101CC0000895CF92DF92EF92FF920F931F93CF93DD
:101CD000DF937C016B01EA01CA0101960E9459273A
:101CE0008C010097F1F0AE01B6010E947E28F80148
:101CF000EC0FFD1F1082D701ED91FC910084F1855E
:101D0000E02DB801C7010995C8010E94F527CE0151
:101D1000DF91CF911F910F91FF90EF90DF90CF90C7
:101D20000895D0E0C0E0F3CFCF92DF92EF92FF9220
:101D30000F931F93CF936C017B01C42F8901DC01AA
:101D4000D196ED91FC91309709F1808191818E15AA
:101D50009F05C1F40280F381E02D80818C1708F487
:101D6000C82F4C2F50E0BF016F5F7F4FC8010E940A
:101D70007E288C2FCF911F910F91FF90EF90DF90D5
:101D8000CF9008950480F581E02DDDCFF6018081AC
:101D9000918122AD33ADDC0156964D915C912417B3
:101DA000350751F02115310511F428E630E0FC012A
:101DB000378B268B0E942D050115110509F448C0AB
:101DC000D6012D913C91F901878D90A1B0E0A0E062
:101DD000438D548DE416F506A0F1658D768D6E1554
:101DE0007F0578F166897789FB01E80FF91FE41612
:101DF000F50659F0E4918E0F911DA11DB11D0196BC
:101E0000A11DB11D4F5F5F4FEFCF4491C41710F577
:101E10000196A11DB11DA801801B910B642F601BB1
:101E20006C1708F0A6CFBC01640F751FD901569638
:101E3000ED91FC91E60FF71FE491DA01ED93AD010E
:101E4000EDCF4C2F50E070E060E0C8010E94872881
:101E5000C0E08FCFC491DCCF1F93CF93DF93EC0111
:101E6000142F2CA93DA94BA90E94940E112389F08F
:101E7000882379F090E02EA9921758F42BA98217A5
:101E800030F4ECA9FDA9E80FF11D10828F5F9F5F70
:101E9000F2CFDF91CF911F9108950F931F93CF93AE
:101EA000DF93EC018B01EEA5FFA541E0818181115B
:101EB00001C040E0608170E0CE010E942C0FF8016B
:101EC000808328A19C8D21FD10C0992359F0288D75
:101ED000398D2530310581F4682F8CA99DA90E9488
:101EE00097030AC02A8D3B8DF4CF9923B9F0288D32
:101EF000398D2530310581F788A180FF06C0F801B2
:101F000060818CA99DA90E94B103CE010E94710637
:101F100081E0DF91CF911F910F9108952A8D3B8D24
:101F2000E8CF0F931F93CF93DF93EC01FB01108257
:101F3000ACA5BDA5BFA7AEA7109719F08C918111D4
:101F400008C081E088AB80E0DF91CF911F910F91B5
:101F5000089518AA8C8D98A191FD10C0882359F07E
:101F6000888D998D059781F40D900020E9F71297DF
:101F7000BFA7AEA709C08A8D9B8DF4CF882331F10E
:101F8000888D998D059781F7AEA5BFA541E0119683
:101F90008C911197811101C040E08B016C9170E030
:101FA000CE010E942C0FF801808328A19C8D21FD79
:101FB00013C0992371F0288D398D2530310599F49E
:101FC000682F8CA99DA90E9497030DC08A8D9B8DB7
:101FD000D9CF2A8D3B8DF1CF992399F0288D398D5A
:101FE0002530310569F788A180FF06C0F8016081BE
:101FF0008CA99DA90E94B103CE010E94710681E0C7
:10200000A3CF2A8D3B8DECCFCF92DF92EF92FF9240
:102010000F931F93CF93DF93EC010E94730DC98838
:10202000DA887E0187E3E80EF11CB701CE010E9439
:10203000910F19AE18AE86018B899C890817190774
:102040007CF18FA928AD39AD8217130611F08111EB
:102050000AC01FAA88A9811104C0B701CE010E943D
:102060004D0F19AE18AE8FA9882331F3888199815D
:1020700048AD59AD9A012F5F3F4FECA9FDA9E40F80
:10208000F51F4D8D39AF28AF442341F04081409575
:10209000B8010E94B60801501109CECF4081F8CF97
:1020A000DF91CF911F910F91FF90EF90DF90CF9034
:1020B0000895FF920F931F93CF93DF93EC01F62EB9
:1020C0008D859E85442309F462C08430910530F5E6
:1020D000019758F18D859E85059721F483E090E066
:1020E0009E878D87CE010E9404100DA11EA12FA1F5
:1020F0008AA59BA5820F911D27FD9A9580179107B0
:10210000E1F04D8D4195B801888199810E94B60812
:102110008FA1080F111D87FD1A95E9CF0597D1F200
:1021200085E090E09E878D872CC0CE010E94A1069D
:1021300083E090E09E878D87CDCFFF2069F06DA171
:102140007EA10617170741F04D8D81E04827419584
:10215000888199810E94B6088DA19EA12FA1022E8F
:10216000000C330B4AA55BA5420F531F841795073C
:1021700021F445E050E05E874D87820F931F9EA3B8
:102180008DA3DF91CF911F910F91FF90089584301F
:10219000910500F5019700F1CE010E94041008A5F9
:1021A00019A56DA17EA18FA1082E000C990B9B0192
:1021B000280F391F20173107B9F04D8D4195B8010F
:1021C000888199810E94B6088FA1080F111D87FD93
:1021D0001A95E7CF059751F5CE010E94A10683E03D
:1021E00090E09E878D87D8CFFF2079F02AA53BA568
:1021F000820F931F6817790741F04D8D81E04827C2
:102200004195888199810E94B6088DA19EA12FA138
:10221000022E000C330B4AA55BA5420F531F8417F7
:10222000950709F0AACF46E050E0A5CF86E090E000
:1022300079CFAF92BF92CF92DF92EF92FF920F933E
:102240001F93CF93DF93EC01F62E8D859E8544235B
:1022500009F470C08430910590F50197B8F1CE0172
:102260000E94730DCE010E940410CBA088E0C89E8E
:1022700060011124EE24E394F11002C050E8E52E31
:102280000DA11EA18CA190E0019643E0880F991F3B
:102290004A95E1F7C816D906BCF5A880B980B60101
:1022A000C5010E946806101611062CF5FF2009F1E1
:1022B000880F9D8D91118E2901501109F4CF05973A
:1022C00071F285E090E09E878D8729C087E090E0DD
:1022D0009EA38DA310E000E02BE030E04CA16BA1A9
:1022E000888199810E948E0D83E090E09E878D8782
:1022F000B6CF8695DECF482FB601C5010E94B6083D
:102300008FEFC81AD80ABCCF0115110521F485E05A
:1023100090E09E878D87015011091EA30DA3DF91C8
:10232000CF911F910F91FF90EF90DF90CF90BF90D2
:10233000AF9008958430910560F5019760F10BA18D
:1023400088E0089F8001112430E8E32EF11002C0DC
:10235000EE24E3948CA190E0019623E0880F991F6E
:102360002A95E1F708171907FCF4C880D980B8014D
:10237000C6010E946806482FFF20A1F046958D8D6A
:1023800081114E29B801C6010E94B6080F5F1F4F88
:10239000E1CF0597B1F41EA21DA283E090E09E87D5
:1023A0008D87CDCF440FEBCF8DA19EA187309105B6
:1023B00021F426E030E03E872D8701969EA38DA371
:1023C000AECF86E090E07FCFCF92DF92EF92FF9288
:1023D0001F93CF93DF93EC01D42E8D859E856623CA
:1023E00009F458C084309105A8F50197D0F1CE01C9
:1023F0000E9404102DA13EA12830310569F1E8A406
:10240000F9A481E090E001C0880F2A95EAF7182F1F
:10241000D11010952FA18AA59BA5820F911D27FD94
:102420009A958E159F0549F1C880D980B701C601DC
:102430000E9468069D8D412F9923E9F04095482B15
:10244000B701C6010E94B6088FA1E80EF11C87FDF6
:10245000FA94E0CF059759F285E090E09E878D874A
:1024600011C0CE010E94A1061EA21DA283E090E031
:102470009E878D87BCCF4823E3CF8DA19EA1019677
:102480009EA38DA3DF91CF911F91FF90EF90DF90DE
:10249000CF9008958430910598F5019798F1CE0179
:1024A0000E9404108DA19EA110E097FD05C011E0CF
:1024B00001C0110F8A95EAF7E8A4F9A4D11010958C
:1024C0002FA18AA59BA5820F911D27FD9A958E1598
:1024D0009F0531F1C880D980B701C6010E94680606
:1024E0009D8D412F9923D1F04095482BB701C6010E
:1024F0000E94B6088FA1E80EF11C87FDFA94E0CF88
:102500000597C1F4CE010E94A10687E090E09EA34A
:102510008DA383E090E09E878D87C1CF4823E6CFCF
:102520008DA19EA197FF04C026E030E03E872D8755
:102530000197A6CF86E090E091CFFF920F931F9373
:10254000CF93DF93EC01F42E8D859E85662309F4ED
:1025500044C08430910538F5019760F1CE010E94A6
:1025600004102DA13EA18AA59BA528173907E9F0E3
:1025700008A519A58FA1082E000C990B2DA13EA12D
:102580004AA55BA5480F591F4017510709F464C0BD
:10259000F11018C002171307C1F48FA1080F111D05
:1025A00087FD1A95E7CF0597C9F285E090E09E87F1
:1025B0008D8756C0CE010E94A10683E090E09E87E1
:1025C0008D87CCCF0217130741F74D8D4195B80188
:1025D000888199810E94B608E0CF8430910500F58A
:1025E000019700F1CE010E94041008A519A54AA583
:1025F0005BA58FA1082E000C990B2DA13EA1BA015D
:10260000680F791F6017710701F1F11013C00217ED
:10261000130799F48FA1080F111D87FD1A95E7CFB5
:10262000059721F5CE010E94A10683E090E09E87E8
:102630008D87D8CF0217130769F74D8D4195B801E3
:10264000888199810E94B608E5CF2417350724F4C4
:1026500046E050E05E874D87820F931F9EA38DA3B7
:10266000DF91CF911F910F91FF90089586E090E048
:102670009ECFEF92FF920F931F93CF93DF93EC01C6
:10268000162F8D859E85442309F488C083309105DB
:1026900028F00397B1F185E090E02AC069897A8932
:1026A0008B899C899B01281B390BC90137FD019639
:1026B0009595879501969EA38DA31123B9F04D8D15
:1026C00011E041274195681B790B888199810E940F
:1026D000B6084D8D412741956B897C898DA19EA1BE
:1026E000680F791F888199810E94B60883E090E085
:1026F0009E878D87DF91CF911F910F91FF90EF9073
:1027000008958DA19EA197FDC6CFCE010E94041011
:10271000F12CE12C6DA17EA1E616F706C4F44D8DD7
:1027200041956B897C896E0D7F1D888199810E94FE
:10273000B6084D8D419569897A896E197F0988811E
:1027400099810E94B6083FEFE31AF30AE3CF615084
:1027500071097EA36DA3112369F277FDCBCF4D8D57
:1027600011E0412741958B899C89680F791F8881E9
:1027700099810E94B6084D8D4127419569897A89D2
:102780008DA19EA1681B790B88819981DF91CF91E2
:102790001F910F91FF90EF900C94B6088330910534
:1027A00031F108F077C0019708F477C0CE010E949C
:1027B000730DCE010E9404101EA21DA2112399F0D8
:1027C0004D8D01E04027419569897A8988819981F9
:1027D0000E94B6084D8D402741956B897C89888180
:1027E00099810E94B60883E090E09E878D872DA195
:1027F0003EA169897A898B899C89AB01481B590B59
:10280000CA0157FD019695958795821793070CF499
:1028100044C04D8D4195621B730B888199810E9444
:10282000B6084D8D41956B897C898DA19EA1680F5D
:10283000791F888199810E94B6082DA13EA12F5F42
:102840003F4F3EA32DA3112309F454CF69897A8900
:102850008B899C89AB01481B590BCA0157FD019616
:1028600095958795821793070CF444CF4D8D11E011
:1028700041274195621B730B888199810E94B6089C
:102880004D8D412741956B897C898DA19EA1680F53
:10289000791F7ACF059709F489CF86E090E028CF99
:1028A000CF92DF92EF92FF920F931F93CF93DF931C
:1028B000EC01162F8D859E85442309F458C0843081
:1028C0009105B0F5019708F43AC0CE010E940410BA
:1028D0002DA13EA190E080E0111102C08FEF90E0A9
:1028E0002817390739F1E8A4F9A42FA18AA59BA5D7
:1028F000820F911D27FD9A958E159F0581F10D8DF3
:10290000C880D980B701C6010E9468060111809570
:102910004DA111114095482301114095B701C60101
:102920000E94B6088FA1E80EF11C87FDFA94DDCF56
:10293000059759F285E090E09E878D8771C0CE01A2
:102940000E94A1068FEF90E0111102C081E090E09B
:102950009EA38DA383E090E09E878D87B6CF8DA147
:102960009EA1112309F457C09595879557C08430CF
:10297000910550F5019750F1CE010E940410E8A492
:10298000F9A42FA18AA59BA5820F911D27FD9A95D9
:102990008E159F0559F10D8DC880D980B701C601EC
:1029A0000E946806011180954DA1111140954823A0
:1029B00001114095B701C6010E94B6088FA1E80E2B
:1029C000F11C87FDFA94DDCF0597C1F4CE010E947A
:1029D000A10681E090E0111102C08FEF90E09EA36C
:1029E0008DA383E090E09E878D87C6CF8DA19EA1A9
:1029F000111107C0009709F0B7CF06C086E090E03C
:102A00009BCF8F3F910539F426E030E03E872D873C
:102A1000112309F4A9CF880F991F81609EA38DA36C
:102A2000DF91CF911F910F91FF90EF90DF90CF90AA
:102A30000895AF92BF92CF92DF92EF92FF920F93E1
:102A40001F93CF93DF93EC01F62EE42E8D859E85A8
:102A5000222309F4DDC08430910598F50197C0F177
:102A6000CE010E94730DCE010E9404100DA11EA183
:102A7000EE2009F466C0EE24E394F11002C070E881
:102A8000E72ECDA0DEA08CA190E0019663E0880F38
:102A9000991F6A95E1F708171907CCF5A880B98046
:102AA000B801C5010E9468069601121613062CF59E
:102AB000FF2009F1880F9D8D91118E292150310938
:102AC000F4CF059769F285E090E09E878D8795C0E9
:102AD00087E090E09EA38DA310E000E02BE030E0C3
:102AE0004CA16BA1888199810E948E0D83E090E0BA
:102AF0009E878D87B5CF8695DECFB8016C197D098D
:102B0000482FC5010E94B6080F5F1F4FBACF10E0D3
:102B100000E08DA19EA1081719070CF063C04D8D30
:102B200041956CA128E0629FB0011124695F7F4F3D
:102B3000601B710B888199810E94B6080F5F1F4F3F
:102B4000E8CF8CA138E0839FC00111249C01201B99
:102B5000310B8901085F1F4FEE24E394F11002C08E
:102B600050E8E52ECDA0DEA08BA138E0839FC00108
:102B7000112408171907FCF0A880B980B801C50115
:102B80000E9468069601121613065CF4FF2039F0C5
:102B9000880F9D8D91118E2921503109F4CF869592
:102BA000F8CFB8016C0D7D1D482FC5010E94B608F5
:102BB00001501109D7CF10E000E08DA19EA10817A8
:102BC000190784F44D8D41956BA188E0689FB00191
:102BD0001124600F711F888199810E94B6080F5FD0
:102BE0001F4FEBCF8DA19EA1009721F425E030E08F
:102BF0003E872D8701979EA38DA3DF91CF911F91D3
:102C00000F91FF90EF90DF90CF90BF90AF9008951D
:102C10008430910580F5019788F1EE20C1F10CA177
:102C200028E0029F800111240A5F1F4F40E8B42E64
:102C3000F11002C0BB24B394C880D9808BA138E0C6
:102C4000839FC0011124081719070CF450C0B80164
:102C5000C6010E946806482FFF20B9F046958D8D69
:102C600081114B29B8016F5F7F4FC6010E94B608E2
:102C700001501109E1CF059709F059C01EA21DA20C
:102C800083E090E09E878D87C8CF440FE8CF0BA1EB
:102C900088E0089F800111240F5F1F4F30E8B32E9A
:102CA000F11002C0BB24B394C880D9808CA190E0FD
:102CB000019623E0880F991F2A95E1F70817190755
:102CC000B4F4B801C6010E946806482FFF2069F0DD
:102CD00046958D8D81114B29B80161507109C6014E
:102CE0000E94B6080F5F1F4FDFCF440FF2CF8881DD
:102CF00099814D8D4195EE2091F06BA128E0629F66
:102D0000B00111240E94B6088DA19EA187309105C3
:102D100021F426E030E03E872D8701966CCF6CA130
:102D200038E0639FB0011124695F7F4FEBCF86E0ED
:102D300090E0CBCECF92DF92FF920F931F93CF9371
:102D4000DF93EC01F62E8D859E85442309F484C023
:102D50008330910570F0039751F185E090E09E87F4
:102D60008D87DF91CF911F910F91FF90DF90CF90D2
:102D700008951EA21DA2CE010E94730DFF2099F09E
:102D80004D8D11E04127419569897A898881998122
:102D90000E94B6084D8D412741956B897C898881B9
:102DA00099810E94B60883E090E09E878D87CE01CE
:102DB0000E94730DCE010E9404100B891C89898921
:102DC0009A89801B910B97FD01966C01D594C7944D
:102DD0008DA19EA1080F191FC816D9060CF4BDCFEE
:102DE0000F5F1F4F69897A898DA19EA19B01281BC6
:102DF000390B0217130744F44D8D4195B8018881B2
:102E000099810E94B608ECCF01969EA38DA3FF2066
:102E100009F4A7CFC816D9060CF4A3CF4D8D11E045
:102E200041274195681B790B888199810E94B608DA
:102E30004D8D412741956B897C898DA19EA1680F9D
:102E4000791F88819981DF91CF911F910F91FF9018
:102E5000DF90CF900C94B60883309105D1F1A0F5A6
:102E60000197A0F189899A892B893C89821B930B50
:102E700097FD0196959587959EA38DA3CE010E94FF
:102E8000730DCE010E940410FF20D9F04D8D11E08A
:102E90004127419569897A898DA19EA1681B790B8B
:102EA000888199810E94B6084D8D412741956B8993
:102EB0007C898DA19EA1680F791F888199810E94CC
:102EC000B60883E090E04BCF059761F286E090E092
:102ED00046CF8DA19EA197FDF9CF4D8D4195698972
:102EE0007A89681B790B888199810E94B6084D8D7B
:102EF00041956B897C898DA19EA1680F791F88817E
:102F000099810E94B6088DA19EA101979EA38DA3D1
:102F1000FF2009F426CF97FD24CF4D8D11E04127E6
:102F2000419569897A897ECF8F929F92AF92BF92A5
:102F3000CF92DF92EF92FF920F931F93CF93DF9385
:102F4000EC01F62E8D859E85442309F4E0C08E01A8
:102F5000095C1F4F35E0C32ED12C82309105E9F07A
:102F600050F08330910509F441C0049709F4A8C0DA
:102F700085E090E00FC0BE01695C7F4FCE010E94EA
:102F8000910F811103C086E090E004C019AE18AE25
:102F900083E090E09E878D870DC01FAA88A98823B3
:102FA000B1F0DE86CD868D859E852FA9211116C0B4
:102FB000059799F7DF91CF911F910F91FF90EF90B7
:102FC000DF90CF90BF90AF909F908F900895B80101
:102FD000CE010E944D0F8111E6CFE3CF059751F34B
:102FE00019AE18AE83E090E09E878D878FA9882365
:102FF00029F121E02F2530E04CA16BA18881998136
:103000000E940D0C888199816D8D2CA93DA948AD38
:1030100059AD662301F1BA016F5F7F4F79AF68AF99
:10302000240F351FF90140814095FF20F1F06BA17D
:10303000F8E06F9FB00111240E94B6082FA988AD57
:1030400099AD2817190609F0B5CF88A9811115C0C7
:1030500082E090E09FCFBA016F5F7F4F79AF68AF9A
:10306000240F351FF9014081E0CF6CA128E0629F59
:10307000B0011124695F7F4FDFCF29893A89FF2092
:10308000B1F08F859889A901481B590BCA01019697
:103090002BA158E0259F80199109112499AF88AF81
:1030A000181619060CF064CF84E090E073CF8CA161
:1030B000E8E08E9FC00111240796821B930BEECF90
:1030C00021E0262730E04CA16BA1888199810E94E4
:1030D0000D0C888199814D8D4195FF2081F06BA168
:1030E000F8E06F9FB00111240E94B60888AD99AD39
:1030F000019799AF88AF892B09F05CCF39CF6CA1CC
:1031000028E0629FB0011124695F7F4FEDCF8430CA
:10311000910539F0059709F036CF84E090E09E875D
:103120008D8721E02F2530E04CA16BA1888199810A
:103130000E940D0C888199814D8D4195FF2009F4E5
:1031400045C06BA138E0639FB00111240E94B6080E
:103150000CA110E0ABA0B12C6801CA18DB088FEFFE
:10316000C81AD80A23E0CC0CDD1C2A95E1F78E8D15
:103170009F8D009721F08C159D0508F46C010F5F61
:103180001F4F83E0000F111F8A95E1F793E0AA0C0F
:10319000BB1C9A95E1F7FF2021F145017401EA1863
:1031A000FB0880169106DCF5B401888199810E94A4
:1031B000680690E02D8D222389F02FEF30E08217F2
:1031C000930769F5EFEF8E1A9E0AE8CF6CA158E0DD
:1031D000659FB0011124695F7F4FB8CF30E020E0D8
:1031E000EECF01501109F12CE12C0A151B05BCF0A2
:1031F000B801888199810E94680690E02D8D222374
:1032000059F02FEF30E08217930749F4015011096C
:10321000FFEFEF1AFF0AE9CF30E020E0F4CFEC1423
:10322000FD0408F0B0CEC6CE2F923F924F925F922F
:103230006F927F928F929F92AF92BF92CF92DF92C6
:10324000EF92FF920F931F93CF93DF93CDB7DEB72B
:103250002B970FB6F894DEBF0FBECDBF9B838A833A
:1032600004969D838C8350E040E06AE070E00E9409
:103270002F0E212C198206E010E035E0632E712C10
:1032800043E0442E512CAA81BB8198968C9198974B
:10329000281610F00C94FB219596ED91FC9124E4F6
:1032A000229EE00DF11D1124FB87EA8712A22585DD
:1032B000368581E02630310509F4C8C1848D882324
:1032C00019F187819085B0E0A0E02530310511F13A
:1032D0002FB7F89440913C0250913D0260913E021C
:1032E00070913F022FBFEA85FB85C380D480E580C3
:1032F000F6804C195D096E097F09481759076A075E
:103300007B0740F580E0A2C1AA85BB8519968D9107
:103310009C91D9CF2FB7F89440913C0250913D0237
:1033200060913E0270913F022FBFEA85FB85C3800A
:10333000D480E580F6804C195D096E097F09C3844D
:10334000D484F12CE12C4C155D056E057F0508F049
:10335000BFCFD8CFAA85BB8512969C909110D2CFB3
:103360002FB7F89480913C0290913D02A0913E02CB
:10337000B0913F022FBFEA85FB8583839483A583A9
:10338000B68381E082A3A4A4B5A4A114B10409F476
:1033900053C185859685009709F433C0069709F4D3
:1033A0004BC1AA85BB855C963C905C97332009F4A1
:1033B000F8C05896ED91FC913197EC31F10508F089
:1033C00094C3EB51F64E0C945327FB1A041B2B1B92
:1033D0002E1B351B0520381BAE1C781DBB1E051E81
:1033E000451F8221892193218C219C2195219E2199
:1033F000A521A821AF21B221BA21BD21C121C4211B
:10340000CB21AA85BB859F96BC92AE929E9794963F
:10341000EC90B8E0EB9E70011124F70137967F0124
:10342000AA85BB8593968C91B8E08B9FE018F10834
:103430001124EFEFEE1AFE0AD12CC12CD5016D91AB
:103440005D016623C1F0EA85FB8524A935A970E0FA
:1034500043A9CF010E94940E90E0C80ED91E892B7B
:1034600069F3D5018C91882349F3EA85FB8586A908
:10347000C80ED11CE3CFAA85BB855096DC92CE92B4
:103480001F9756968D919C918130910509F455C0F6
:1034900028F0029771F1992493941DC0EA85FB8569
:1034A00084A190E0019623E0880F991F2A95E1F707
:1034B0009C0121503109328B218BEC14FD0490F4D6
:1034C00083A1F8E08F9FC0011124AA85BB85549683
:1034D0009C938E93539781E09826EA85FB85958A85
:1034E000848F5FCF8C199D09EA85FB85948B838B34
:1034F000D2CFAA85BB8593968C91B8E08B9FC001F3
:103500001124EA85FB85948B838BEC14FD0468F40D
:1035100084A1F8E08F9FC00111240796AA85BB857E
:1035200052969C938E935197D6CF0197C80ED91E71
:10353000EA85FB85D28AC18AAECFAA85BB859396E0
:103540002C91B8E02B9F90011124EC14FD0498F409
:10355000EA85FB8584A1F8E08F9FC00111240796BE
:10356000AA85BB8552969C938E93519754963C9313
:103570002E935397B0CFEC18FD08F694E794E20E23
:10358000F31EEA85FB85F48AE38AF1E0CF1AD108BD
:10359000CE0CDF1CAA85BB855296DC92CE92519749
:1035A0007ACFAA85BB855A96ED91FC913197EC3183
:1035B000F10508F09AC2E152F54E0C945327EA1D2A
:1035C000041B2B1B2E1B351B0520381BAE1C781D26
:1035D000BB1E051E451F8221892193218C219C2120
:1035E00095219E21A521A821AF21B221BA21BD217B
:1035F000C121C421CB218A859B850E940410EA85C4
:10360000FB857686658606C0432D61E08A859B85AD
:103610000E941911AA85BB855C968C915C971D96BA
:103620002D913C91882329F081E02530310509F462
:1036300080E0EA85FB85848F81E0AA85BB851D96A5
:103640002D913C912630310509F05CCEB981B82B23
:10365000B983239418CE432D60E0D8CF432D61E089
:103660008A859B850E949417D5CF432D60E0F8CFC3
:10367000EA85FB8585859685332009F4EAC07F01BC
:10368000F7E3EF0EF11C82309105A1F130F00397C2
:1036900009F45BC0AA85BB8565C26A857B85695CC8
:1036A0007F4F8A859B850E94910F811103C0AA8557
:1036B000BB8598C68A859B850E94730DEA85FB852C
:1036C00011AE10AE83A1F8E08F9FC0011124AA852E
:1036D000BB8596969C938E93959751968D919C91D0
:1036E00052979B969C938E939A971E965C924E92BD
:1036F0001D9790CFEA85FB8517AA80A9882381F0C2
:10370000AA85BB851E967C926E921D97EA85FB85E5
:103710008585968527A921110BC0059759F77ACF82
:10372000B7018A859B850E944D0F8111EFCFE8CFAD
:10373000059709F46FCFAA85BB85D9961C921E9276
:10374000D8971E965C924E921D97EA85FB8565A1DF
:1037500076A182A593A504A8F5A9E02DAA85BB852D
:10376000D8962D913C91D997E20FF31F40816817AD
:10377000790751F48D919C9111975D962C912111AF
:1037800040950E94B6083BCF411135C0AA85BB8544
:1037900096969C938E939597EA85FB8585A196A135
:1037A00022A533A582179307C1F420AD31AD43A103
:1037B000F8E04F9FA0011124AA85BB8596965C93E3
:1037C0004E9395972F5F3F4FD9963C932E93D89762
:1037D00001979B969C938E939A97EA85FB8527A9E0
:1037E00080AD91AD2817190609F014CF82E090E062
:1037F000968785870FCFEA85FB85458D419580812A
:1038000091810E94B608AA85BB8595966D917C91A1
:1038100096976F5F7F4F96967C936E9395978D9159
:103820009C9111975D96EC915D97D4962D913C916A
:10383000D597D8964D915C91240F351FEE2331F02A
:10384000F901408140950E94B608A6CFD9014C915C
:10385000FACF8130910508F42ACF8430910568F0C1
:10386000059709F024CFEA85FB858189928993A782
:1038700082A796A385A356864586AA85BB85CD904B
:10388000DC9011975D968C91912C812C882319F0F6
:1038900088248A94912CEA85FB85A388B488AA851C
:1038A000BB859596ED90FC90B701C6010E94680615
:1038B000EA85FB8522A533A58815190451F42A153C
:1038C0003B053CF0C901019793A782A736A325A326
:1038D000E6CF2F5F3F4F2A153B050CF4E8CEEA8573
:1038E000FB8524A1F8E02F9F90011124295F3F4F11
:1038F000E216F3063CF4B7016F5F7F4F482FC60115
:103900000E94B608AA85BB855D964C915D9741954E
:1039100095966D917C9196978D919C910E94B60899
:10392000EA85FB8525A136A12F5F3F4F36A325A34E
:1039300084A190E00196B3E0880F991FBA95E1F752
:103940002817390709F066CE82A593A59C0121505E
:10395000310933A722A796A385A35CCEEA85FB8510
:1039600085859685332009F469C08430910508F077
:1039700042C0019708F443C08A859B850E94730D5D
:103980008A859B850E940410EA85FB85E3A0F8E008
:10399000EF9E7001112499249394AA85BB85959676
:1039A000CD90DC90969794968C91B8E08B9FC00157
:1039B000112407968E159F0590F1EA85FB85A0805E
:1039C000B180B701C5010E946806482F50E087E02A
:1039D00090E08C199D093320E9F002C05595479578
:1039E0008A95E2F7B701C5010E94B6083924FFEFB6
:1039F000EF1AFF0AD2CF059709F4BECF4BCEAA85A6
:103A0000BB8596961C921E9295971E965C924E923E
:103A10001D97B2CF01C0440F8A95EAF7E3CF2FEF8D
:103A2000C21AD20AAA85BB859696DC92CE92959749
:103A3000B8E0CB16D10409F0EDCDE1CD843091058D
:103A4000A0F50197A8F1AA85BB859396EC90B8E004
:103A5000EB9E700111249924939488248394EA8521
:103A6000FB85C5A0D6A084A1F8E08F9FC0011124DA
:103A700007968E159F0558F1AA85BB85AD90BC9021
:103A8000B701C5010E946806482F50E09920C9F08F
:103A900001C0440FCA94EAF7B701C5010E94B608F5
:103AA0009824BFEFEB1AFB0ADACF059709F0FFCD98
:103AB00021E030E0EA85FB8536A325A356864586BE
:103AC000C2CF02C055954795CA94E2F7E5CFEFEF14
:103AD000CE1ADE0AAA85BB859696DC92CE92959781
:103AE000B8E0CB16D10409F095CDEA85FB8507C473
:103AF000EA85FB8585859685332009F45AC0843094
:103B0000910500F58230910500F5009781F101974C
:103B100009F0C0CDAA85BB8595966D917C9196974D
:103B2000CB01019696969C938E939597CD010E941A
:103B30001E0E8A859B850E940410EA85FB855686A9
:103B4000458668CD059709F0A5CDAA85BB859596D4
:103B50006D917C9196979A968D919C919B978617E3
:103B60009707ECF41E967C926E921D9753CDAA8512
:103B7000BB8596961C921E92959791968C919197E3
:103B800090E09B969C938E939A97CD010E94730D23
:103B900021E030E0EA85FB85368725873BCDCB01E8
:103BA0000196EA85FB8596A385A3CF010E941E0E90
:103BB00031CD8430910598F40197A0F0EA85FB851A
:103BC00065A176A1CB01019777FFEBCF62A5CF016D
:103BD0000E941E0E8A859B850E94730D68CD0597F5
:103BE00009F065CDEA85FB8561A1862F90E093A75A
:103BF00082A796A385A3CF010E941E0E8A859B856E
:103C00000E940410AA85BB8570CDEA85FB85858559
:103C100096858230910509F45DC048F4009769F0FB
:103C20000197B9F031102EC186E090E0E6C08330F4
:103C3000910509F492C00597A9F7AA85BB859696C8
:103C40001C921E929597E1E0F0E01E96FC93EE9395
:103C50001D97AA85BB8595968D919C919697019607
:103C600096969C938E9395979396EC90B8E0EB9EE6
:103C700070011124DD24D394EA85FB8525A136A1AA
:103C800084A190E00196A3E0880F991FAA95E1F71F
:103C9000E816F90694F4C7018370992782179307F1
:103CA00044F4458D4D254195B701808191810E9455
:103CB000B608FFEFEF1AFF0ADFCF82E090E0243072
:103CC000310509F0A7CCAA85BB851E969C938E93DF
:103CD0001D97A0CC8A859B850E94730D332021F00F
:103CE0008A859B850E940410EA85FB8585A196A1A3
:103CF000019796A385A3E3A0F8E0EF9E700111243D
:103D0000DD24D394AA85BB8595962D913C919697F9
:103D100094968C91949790E00196E3E0880F991F18
:103D2000EA95E1F7E816F906A4F4C701837099272C
:103D30008217930754F45D964C915D974D254195FC
:103D4000B7018D919C910E94B608BFEFEB1AFB0A58
:103D5000D9CF232B09F05ECCF0CE8A859B850E94BB
:103D6000730D332009F40FC18A859B850E940410CE
:103D700085E090E0A8CFAA85BB851D968D919C918A
:103D80008230910509F43CC038F08330910509F484
:103D90006EC0059709F0F5C0EA85FB85E3A0F8E061
:103DA000EF9E70011124AA85BB8594968C919497FF
:103DB00090E0019673E0880F991F7A95E1F7E81675
:103DC000F906CCF45D96BC905D97CD90DC90B70180
:103DD000C6010E946806B110809545E5E0FE4AEAFA
:103DE000482BB1104095B701C6010E94B608BFEF3D
:103DF000EB1AFB0AD8CF82E090E0EA85FB85F8CC8D
:103E00008A859B850E94730D332021F08A859B85CE
:103E10000E940410AA85BB859396EC90B8E0EB9EB7
:103E200070011124EA85FB8584A190E0019663E08E
:103E3000880F991F6A95E1F7E816F9060CF0E2CEB3
:103E4000B58CC080D180B701C6010E946806B11050
:103E500080954AEAE0FE45E5482BB1104095B70150
:103E6000C6010E94B608FFEFEF1AFF0ADBCF8A8572
:103E70009B850E94730D332009F4D6CE8A859B85DD
:103E80000E94041085E090E0B8CFEA85FB85858527
:103E900096858430910508F079C0019708F479C0BF
:103EA000EA85FB8516A215A20E9498264B015C01AB
:103EB0000E9498266E837F8388879987AA85BB8511
:103EC0009596CD90DC90BFEFCB1ADB0AEA85FB8597
:103ED000D6A2C5A2C501B4012BE030E040E050E01D
:103EE0000E94F02670E09B0122523E4F7901D901D9
:103EF000BC906E817F818885998528E030E040E024
:103F000050E00E94F0268B2D90E0062E02C0959581
:103F100087950A94E2F780FF05C0B8E8CB16B3E1B5
:103F2000DB0614F281E090E001C0880F6A95EAF7A1
:103F3000B82AF701B0828A859B850E940410AA8561
:103F4000BB8596961C921E9295979396EC90B8E03E
:103F5000EB9E70011124EA85FB8584A1F8E08F9F18
:103F6000C001112407968E159F0510F5EEEDF1E0C6
:103F700081918F3F09F04ECB26EE31E02E173F079F
:103F8000B9F73110F5CE86E090E09DCE059709F0A7
:103F900049CEEEEDF1E0119229EE31E02E173F0708
:103FA000D1F7AA85BB851E965C924E921D9778CF5D
:103FB000AA85BB85CD90DC90B701C6010E9468063A
:103FC000AA85BB859596ED91FC91E252FE4F40810A
:103FD000311001C040954823B701C6010E94B608C0
:103FE000EA85FB8585A196A101968B30910531F07C
:103FF00096A385A3BFEFEB1AFB0AADCFAA85BB85BD
:1040000096961C921E929597F5CFAA85BB851D9614
:104010008D919C913110C6C18430910508F0BEC1CC
:10402000019778F58A859B850E94A106EA85FB8524
:1040300080A591A522A533A58217930724F431A763
:1040400020A793A782A7AA85BB85DE968D919C9118
:10405000DF97892B09F4C6C1EA85FB8583A1F8E0C7
:104060008F9FC00111240197AA85BB8596969C93CA
:104070008E93959797961C9297971E965C924E9268
:104080001D978A859B850E940410EA85FB8585A182
:1040900096A1019696A385A3F12C6F01F1E4CF0EB2
:1040A000D11CD6012C91EA85FB8565A176A1822FD2
:1040B00090E0F21608F0E1C04F2D50E0641B750B44
:1040C00084A190E0019633E0880F991F3A95E1F7BB
:1040D000681779072CF583A1F8E08F9FC0011124A0
:1040E00068177907ECF0AA85BB858D919C91119793
:1040F00097963C919797320390011124420F531FDA
:10410000DE96ED91FC91DF97E40FF51F5D962C9103
:10411000222309F4B0C0E4914E2F40950E94B608C6
:10412000F394BFCFEA85FB8517A284A190E00196A6
:1041300053E0880F991F5A95E1F796A385A35686F9
:1041400045868A859B850E940410AA85BB85959625
:104150008D919C919697019796969C938E939597A7
:10416000F12C6D01B0E4CB0ED11CF6012081AA85A3
:10417000BB8595966D917C919697F21608F03AC0A2
:10418000EF2DF0E06E0F7F1F94968C91949790E046
:10419000019643E0880F991F4A95E1F76817790760
:1041A0002CF593968C91B8E08B9FC0011124681771
:1041B0007907E4F0AA85BB858D919C91119797961C
:1041C0004C9197974203A00111244E0F5F1FDC967C
:1041D000ED91FC91DD97E40FF51F5D962C91222364
:1041E00039F0E4914E2F40950E94B608F394BDCF6C
:1041F0004491FACF7B01B1E0EB1AF108EA85FB8527
:1042000082A593A5E816F9065CF0458D4195B701A6
:10421000808191810E94B608F1E0EF1AF108EECF9B
:10422000AA85BB8597968C9197978F5F97968C936D
:104230009797082E000C990BFD01EE5BFF4F208134
:104240002817190609F014F497961C92EA85FB8545
:1042500083A1F8E08F9FC0011124D6012C91821B0D
:1042600091090197EA85FB8525A136A12817390711
:1042700009F0D0C9C6C9449151CF7B01E81AF90AA7
:10428000EA85FB8582A593A5E816F9065CF0458DC5
:104290004195B701808191810E94B608F1E0EF1A43
:1042A000F108EECFAA85BB8597968C9197978F5F83
:1042B00097968C939797082E000C990BFD01ED5B58
:1042C000FF4F20812817190609F014F497961C92C5
:1042D000EA85FB8584A1F8E08F9F90011124295F76
:1042E0003F4FD6018C91820F932F911D0196EA8545
:1042F000FB8525A136A12817390709F08BC9168738
:10430000058788C9432D60E08A859B850E945910E6
:1043100081C9432D61E0F8CF41E0632D8A859B85FB
:104320000E949D1277C940E0F8CF41E0632D8A8555
:104330009B850E94E4116EC940E0F8CF432D60E0F8
:104340008A859B850E94391365C9432D61E0F8CFAA
:10435000432D60E08A859B850E949A165BC9432D98
:1043600061E0F8CF232D41E061E08A859B850E94C2
:10437000191550C9232D40E0F7CF232D41E060E00F
:10438000F4CF232D40E0FBCF432D61E08A859B8550
:104390000E9450143FC9432D60E0F8CF059709F4FF
:1043A00041CE85C98430910510F5019708F0C9CE3A
:1043B0008A859B850E94A106EA85FB8580A591A53B
:1043C00022A533A58217930724F431A720A793A72A
:1043D00082A7AA85BB85DC968D919C91DD97892B60
:1043E00009F0A0CE1E961C930E931D9713C9059736
:1043F00009F4A7CE4FC941E050E06AE070E08C813B
:104400009D810E942F0E89812B960FB6F894DEBFF6
:104410000FBECDBFDF91CF911F910F91FF90EF9015
:10442000DF90CF90BF90AF909F908F907F906F90D4
:104430005F904F903F902F900895AF92BF92CF9290
:10444000DF92EF92FF920F931F93CF93DF93EC01D4
:104450005B0188A541E050E0882321F0EDA1FEA199
:1044600046895789D12CC12CEE24E394F12C10E01D
:1044700000E030E020E0B501CE010E943C03CE0117
:104480000E9414198111FBCFF50101900020E9F77A
:10449000CF0101978A199B09DF91CF911F910F914D
:1044A000FF90EF90DF90CF90BF90AF9008951F9254
:1044B0000F920FB60F9211242F933F938F939F93D8
:1044C000AF93BF9380913C0290913D02A0913E0238
:1044D000B0913F0230913B0223E0230F2D3758F576
:1044E0000196A11DB11D20933B0280933C02909345
:1044F0003D02A0933E02B0933F028091370290911B
:104500003802A0913902B0913A020196A11DB11D65
:104510008093370290933802A0933902B0933A0205
:10452000BF91AF919F918F913F912F910F900FBEAF
:104530000F901F90189526E8230F0296A11DB11D1C
:10454000D2CF1F920F920FB60F9211242F933F9349
:104550004F935F936F937F938F939F93AF93BF938B
:10456000EF93FF9380E492E00E949E04FF91EF910D
:10457000BF91AF919F918F917F916F915F914F917B
:104580003F912F910F900FBE0F901F9018951F9283
:104590000F920FB60F9211242F938F939F93EF9347
:1045A000FF93E0915002F09151028081E091560218
:1045B000F091570282FD1BC09081809159028F5F5C
:1045C0008F7320915A02821741F0E0915902F0E076
:1045D000E05CFD4F958F80935902FF91EF919F9181
:1045E0008F912F910F900FBE0F901F901895808183
:1045F000F4CFE0E4F2E01382128288EE93E0A0E0D0
:10460000B0E084839583A683B7838CE591E09183A2
:10461000808385EC90E09587848784EC90E0978791
:10462000868780EC90E0918B808B81EC90E0938B7F
:10463000828B82EC90E0958B848B86EC90E0978B5C
:10464000868B118E128E138E148EEEEDF2E0138295
:1046500012828EE691E091838083118612868AE031
:10466000838781E084872DED32E03687258794E0CB
:104670009787808F21E030E03583248386831782FB
:10468000108697A30895789484B5826084BD84B51C
:10469000816084BD85B5826085BD85B5816085BD3D
:1046A00080916E00816080936E00109281008091F5
:1046B000810082608093810080918100816080937D
:1046C0008100809180008160809380008091B100A2
:1046D00084608093B1008091B00081608093B000CD
:1046E00080917A00846080937A0080917A00826061
:1046F00080937A0080917A00816080937A00809123
:104700007A00806880937A001092C100E091500294
:10471000F091510282E08083E0914C02F0914D02D1
:104720001082E0914E02F0914F028FEC8083109244
:104730005802E0915402F091550286E08083E091A6
:104740005202F0915302808180618083E091520295
:10475000F0915302808188608083E0915202F09151
:104760005302808180688083E0915202F09153026D
:1047700080818F7D808344E650E068E771E080E4CB
:1047800092E00E9420048091EA02882309F40EC17D
:10479000CFB7F8948091EB01811124C0E4ECF5E0EF
:1047A0008491E8EDF5E09491E82FF0E0EE0FFF1F23
:1047B000E055FA4FA591B491EC91E92321F461E021
:1047C0008AE00E94D4038AE00E941D038CB58061B8
:1047D0008CBD8CB580648CBD8DE00E941D038BE088
:1047E0000E941D038091EB018F5F8093EB01CFBF8F
:1047F0008091E9020E941D0361E08091E9020E941C
:10480000D4031092F3021092F2021092F502109269
:10481000F4028091F8029091F9028856904051F08C
:1048200088E690E09093F9028093F80282EE92E09D
:104830000E942D05C091ED02E9E0CE9FC001112438
:104840000E9459278C019093EF028093EE028C2FE7
:1048500090E0880F991F0E9459279093F10280934E
:10486000F002892B09F4ABC0012B09F4A8C050E079
:1048700040E063E070E082EE92E00E942F0E47E09D
:1048800050E061E070E082EE92E00E942F0E47E07F
:1048900050E062E070E082EE92E00E942F0E50E065
:1048A00040E064E070E082EE92E00E942F0E4091C2
:1048B000ED02415060E082EE92E00E94E50B50E094
:1048C00040E070E060E082EE92E00E942F0E50E047
:1048D00040E06BE070E082EE92E00E942F0E41E03B
:1048E00050E06AE070E082EE92E00E942F0EC1E09C
:1048F000D1E0D093060386E490E00E945927FC01A2
:10490000DC0181E090E08D939D93138212821482EA
:10491000158216821782108686E090E0908B87873A
:1049200011A210A212A287E083A315A216A217A6B5
:1049300016A614AA13AA15AA17AA16AAD0AF15AEBE
:1049400014AE17AE16AEE05CFF4F11821082B0932A
:104950000403A0930303CC2309F4CDC0AB2B09F4CB
:10496000CAC0D0E034E4F32E42EEC42E42E0D42E8E
:1049700090910603D91728F5CC2309F4BCC0009107
:10498000030310910403DF9D000D111D1124F80194
:10499000D182C082C8010E943C0EDF5FC1E0F801F5
:1049A00084A995A9892B21F7C0E0E2CF8091E70285
:1049B0000E941D038091E8020E941D0319CFC0E0F0
:1049C00097CFCC2309F497C0809105034FEF480F90
:1049D000913041F4481730F4E0910303F09104035F
:1049E00013A244A307E010E022E030E060E082EE92
:1049F00092E00E948E0D90910603A0910303B09166
:104A00000403FD0180E02AE030E0981741F0308790
:104A10002783328721878F5FEC5BFF4FF6CF992387
:104A2000C9F017968D919C9118974AE0489F900184
:104A3000499F300D112480E094E4409106038417CF
:104A400060F4FD01899FE00DF11D11243487238757
:104A50008F5FF3CF90E080E0E8CFC0E014E4D1E0D6
:104A6000809103039091040320910603C21750F430
:104A7000C19F800D911D1124FC01D6AB0E943C0EFC
:104A8000CF5FEECF20E034E440910603241748F4D2
:104A9000FC01239FE00DF11D1124178E168E2F5F50
:104AA000F3CF20E044E430910603FC01231768F0C3
:104AB00020E041E050E0231781F0518F408F138EAA
:104AC000128E2F5FEC5BFF4FF6CF249FE00DF11DA0
:104AD0001124178A168A2F5FE6CF20E034E4409134
:104AE0000603241740F4FC01239FE00DF11D11245F
:104AF000158E2F5FF4CF84E0C82ED12C94E0E92EE0
:104B0000F12C00ED17E028E230E050E040E06CEEE0
:104B100071E08EED92E00E943C0324E4F22EC0E0AE
:104B2000D0E002E011E0EE24E3948EED92E00E94EA
:104B30001419882319F180914D01882341F062E016
:104B400071E08CEE91E00E948E2810924D01209130
:104B500003033091040380E090910603891770F4F9
:104B6000F9018F9DE00DF11D1124168615868F5FCA
:104B7000F3CF3196F0930101E093000180E492E0DD
:104B80000E947E04892BD9F080E492E00E945C04AC
:104B9000E0910001F091010180838A3041F08D3075
:104BA00031F0CF01825091408934910514F3108285
:104BB0001093010100930001E0924D01DFCF209797
:104BC00009F4B3CF0E948A04882309F4AECF0E946F
:104BD0000000ABCF0F931F93CF93DF938EE691E04E
:104BE0009093DF028093DE02C0910303D09104030F
:104BF000209759F1FE0132972081318144E4429F90
:104C0000C001439F900D1124C80FD91F8091030349
:104C1000909104038C179D07A1F0C454D10989A970
:104C20009AA9009739F0FC01048115810E94F527AB
:104C3000C801F7CF8CA99DA9009741F30E94F527E1
:104C4000E5CFCE0102970E94F5278091EA028823E2
:104C500099F09FB7F8948091EB01882319F0815067
:104C60008093EB018091EB01811105C08CB58F7BA6
:104C70008CBD1092EA019FBF8091EE029091EF02ED
:104C80000E94F5278091F0029091F102DF91CF917F
:104C90001F910F910C94F5278F929F92AF92BF9224
:104CA000CF92DF92EF92FF92CF93DF93EC01688176
:104CB00079818A819B81611571058105910521F4B6
:104CC00064E279ED8BE597E02DE133EF41E050E0D0
:104CD0000E94F02649015A019B01AC01A7EAB1E408
:104CE0000E940F276B017C01ACEEB4EFA50194018B
:104CF0000E941D27C60ED71EE81EF91EF7FE06C02D
:104D000081E0C81AD108E10880E8F80AC882D9828F
:104D1000EA82FB82C701B6019F77DF91CF91FF90B6
:104D2000EF90DF90CF90BF90AF909F908F900895BD
:104D30008F929F92AF92BF92CF92DF92EF92FF92AB
:104D400060914E0170914F018091500190915101FD
:104D5000611571058105910521F464E279ED8BE51A
:104D600097E02DE133EF41E050E00E94F026490149
:104D70005A019B01AC01A7EAB1E40E940F276B0125
:104D80007C01ACEEB4EFA50194010E941D27C60E74
:104D9000D71EE81EF91EF7FE06C081E0C81AD1082A
:104DA000E10880E8F80AC0924E01D0924F01E092EB
:104DB0005001F0925101C701B6019F77FF90EF902B
:104DC000DF90CF90BF90AF909F908F9008956093A9
:104DD0004E0170934F0180935001909351010895BB
:104DE000052E97FB1EF400940E94072757FD07D05D
:104DF0000E94222707FC03D04EF40C9407275095FD
:104E00004095309521953F4F4F4F5F4F08959095B6
:104E10008095709561957F4F8F4F9F4F08950E94A9
:104E20004427A59F900DB49F900DA49F800D911DC8
:104E300011240895B7FF0C940F270E940F27821B9F
:104E4000930B0895A1E21A2EAA1BBB1BFD010DC0F6
:104E5000AA1FBB1FEE1FFF1FA217B307E407F5072A
:104E600020F0A21BB30BE40BF50B661F771F881F06
:104E7000991F1A9469F760957095809590959B019C
:104E8000AC01BD01CF010895A29FB001B39FC00145
:104E9000A39F700D811D1124911DB29F700D811D66
:104EA0001124911D0895EE0FFF1F0590F491E02D40
:104EB00009940F931F93CF93DF938230910510F4E1
:104EC00082E090E0E0910903F0910A0330E020E0F5
:104ED000B0E0A0E0309799F42115310509F44AC0FB
:104EE000281B390B24303105D8F58A819B81611547
:104EF000710589F1FB0193838283FE0111C040811A
:104F000051810281138148175907E0F0481759076A
:104F100099F4109761F012960C93129713961C93C4
:104F20003296CF01DF91CF911F910F910895009399
:104F3000090310930A03F4CF2115310551F04217EC
:104F4000530738F0A901DB019A01BD01DF01F80127
:104F5000C1CFEF01F9CF90930A0380930903CDCF1E
:104F6000FE01E20FF31F819391932250310939839F
:104F70002883D7CF2091070330910803232B41F4D6
:104F80002091540130915501309308032093070379
:104F900020915201309153012115310541F42DB773
:104FA0003EB74091560150915701241B350BE091BB
:104FB0000703F0910803E217F307A0F42E1B3F0B41
:104FC0002817390778F0AC014E5F5F4F241735077B
:104FD00048F04E0F5F1F50930803409307038193DF
:104FE00091939FCFF0E0E0E09CCFCF93DF930097C9
:104FF000E9F0FC01329713821282A0910903B0916B
:105000000A03ED0130E020E01097A1F42081318106
:10501000820F931F20910703309108032817390747
:1050200009F061C0F0930803E0930703DF91CF918B
:105030000895EA01CE17DF07E8F54A815B819E01FA
:1050400041155105B1F7E901FB83EA834991599173
:10505000C40FD51FEC17FD0761F480819181029682
:10506000840F951FE90199838883828193819B83B3
:105070008A83F0E0E0E012968D919C91139700975F
:10508000B9F52D913C911197CD010296820F931F96
:1050900020910703309108032817390739F6309714
:1050A00051F510920A0310920903B0930803A093DC
:1050B0000703BCCFD383C28340815181840F951FE6
:1050C000C817D90761F44E5F5F4F88819981480FF7
:1050D000591F518340838A819B8193838283211549
:1050E000310509F0B0CFF0930A03E09309039ECF96
:1050F000FD01DC01C0CF13821282D7CFFB01DC019E
:1051000002C001900D9241505040D8F70895DC0143
:1051100001C06D9341505040E0F70895FB01DC0160
:1051200001900D920020E1F7089512E0C2EFD2E065
:1051300004C0FE010E9453272196C33FD107C9F73F
:10514000F894FFCF020168656C6C6F206D6F692069
:105150006E67756F6900000000000000000000002D
:10516000000000000000000000000000000000003F
:10517000000000000000000000000000000000002F
:10518000000000000000000000000000000000001F
:1051900000010100000000000B038000000000007F
:1051A000C00420044D040D057E045C04700400005E
:1051B0000000C106610EDA06D9061D220A5B5061A5
:1051C000726F6C61205363726F6C6C696E67204400
:1051D0006973706C61795D0A547970652061206D26
:1051E00065737361676520666F72207468652073EC
:1051F00063726F6C6C696E6720646973706C61793F
:105200000A456E64206D657373616765206C696E15
:105210006520776974682061206E65776C696E65BA
:0252200000008C
:107E0000112484B714BE81FFF0D085E080938100F7
:107E100082E08093C00088E18093C10086E0809377
:107E2000C20080E18093C4008EE0C9D0259A86E02C
:107E300020E33CEF91E0309385002093840096BBD3
:107E4000B09BFECF1D9AA8958150A9F7CC24DD24C4
:107E500088248394B5E0AB2EA1E19A2EF3E0BF2EE7
:107E6000A2D0813461F49FD0082FAFD0023811F036
:107E7000013811F484E001C083E08DD089C08234E0
:107E800011F484E103C0853419F485E0A6D080C0E4
:107E9000853579F488D0E82EFF2485D0082F10E0AE
:107EA000102F00270E291F29000F111F8ED06801E7
:107EB0006FC0863521F484E090D080E0DECF843638
:107EC00009F040C070D06FD0082F6DD080E0C81688
:107ED00080E7D80618F4F601B7BEE895C0E0D1E017
:107EE00062D089930C17E1F7F0E0CF16F0E7DF06D8
:107EF00018F0F601B7BEE89568D007B600FCFDCFD4
:107F0000A601A0E0B1E02C9130E011968C91119780
:107F100090E0982F8827822B932B1296FA010C0160
:107F200087BEE89511244E5F5F4FF1E0A038BF0790
:107F300051F7F601A7BEE89507B600FCFDCF97BE46
:107F4000E89526C08437B1F42ED02DD0F82E2BD052
:107F50003CD0F601EF2C8F010F5F1F4F84911BD097
:107F6000EA94F801C1F70894C11CD11CFA94CF0C13
:107F7000D11C0EC0853739F428D08EE10CD085E9AC
:107F80000AD08FE07ACF813511F488E018D01DD067
:107F900080E101D065CF982F8091C00085FFFCCF94
:107FA0009093C60008958091C00087FFFCCF809118
:107FB000C00084FD01C0A8958091C6000895E0E648
:107FC000F0E098E1908380830895EDDF803219F02E
:107FD00088E0F5DFFFCF84E1DECF1F93182FE3DFCA
:107FE0001150E9F7F2DF1F91089580E0E8DFEE27F6
:047FF000FF270994CA
:027FFE00040479
:00000001FF
