:100000000C9462000C948A000C948A000C948A0070
:100010000C948A000C948A000C948A000C948A0038
:100020000C948A000C948A000C948A000C948A0028
:100030000C948A000C948A000C948A000C948A0018
:100040000C9428040C948A000C9498040C94720468
:100050000C948A000C948A000C948A000C948A00F8
:100060000C948A000C948A000000000024002700F1
:100070002A000000000023002600290000000000E4
:10008000250028002B0004040404040404040202D4
:100090000202020203030303030301020408102007
:1000A0004080010204081020010204081020000012
:1000B0000008000201000003040700000000000027
:1000C00000007C0711241FBECFEFD8E0DEBFCDBFFC
:1000D00012E0A0E0B1E0E6EAFFE002C005900D9278
:1000E000A23CB107D9F723E0A2ECB2E001C01D9217
:1000F000AF37B207E1F710E0C2E6D0E004C02197C5
:10010000FE010E94CB07C136D107C9F70E94CA047D
:100110000C94D1070C940000CF92DF92EF92FF92E3
:100120006B017C01E091F202F091F30282E08083A6
:10013000C11481EED806E104F104A1F060E079E099
:100140008DE390E0A70196010E94A9072150310993
:10015000410951095695479537952795211580E115
:100160003807A8F0E091F202F091F302108260E803
:1001700074E88EE190E0A70196010E94A907215042
:100180003109410951095695479537952795E091D1
:10019000EE02F091EF023083E091F002F091F10273
:1001A00020831092FA02E091F602F091F70286E0C5
:1001B0008083E091F402F091F50280818061808378
:1001C000E091F402F091F502808188608083E091F3
:1001D000F402F091F502808180688083E091F4025E
:1001E000F091F50280818F7D8083FF90EF90DF900A
:1001F000CF900895833081F028F4813099F08230D7
:10020000A9F008958730A9F08830C9F08430B1F49E
:10021000809180008F7D03C0809180008F778093D4
:100220008000089584B58F7784BD089584B58F7D4F
:10023000FBCF8091B0008F778093B00008958091BC
:10024000B0008F7DF9CF1F93CF93DF93EBEBF0E0FE
:100250009491E7EAF0E0D491E3E9F0E0C491CC2393
:10026000B9F0182F992319F0892F0E94FA00EC2F6A
:10027000F0E0EE0FFF1FE458FF4FA591B4918FB748
:10028000F894EC91111108C0D095DE23DC938FBF58
:10029000DF91CF911F910895DE2BF8CFCF93DF939D
:1002A000282F30E0F901E255FF4F8491F901E6561D
:1002B000FF4FD491F901EA57FF4FC491CC23A1F02D
:1002C00081110E94FA00EC2FF0E0EE0FFF1FEE58B4
:1002D000FF4FA591B491EC91ED2381E090E009F4FA
:1002E00080E0DF91CF91089580E090E0FACF3FB7B2
:1002F000F8948091DE029091DF02A091E002B0912B
:10030000E10226B5A89B05C02F3F19F00196A11D5B
:10031000B11D3FBFBA2FA92F982F8827BC01CD014F
:10032000620F711D811D911D42E0660F771F881FAE
:10033000991F4A95D1F708958F929F92AF92BF92DD
:10034000CF92DF92EF92FF924B015C010E94770106
:100350006B017C010E9477016C197D098E099F0950
:10036000683E734081059105A8F321E0821A910847
:10037000A108B10888EEC80E83E0D81EE11CF11C6C
:1003800081149104A104B10429F7FF90EF90DF904C
:10039000CF90BF90AF909F908F9008952FB7F89413
:1003A0006091DA027091DB028091DC029091DD02B3
:1003B0002FBF0895AF92BF92CF92DF92EF92FF923C
:1003C0000F931F93CF93DF936C017B018B01040F7D
:1003D000151FEB015E01AE18BF08C017D10759F019
:1003E0006991D601ED91FC910190F081E02DC6015B
:1003F0000995892B79F7C501DF91CF911F910F9155
:10040000FF90EF90DF90CF90BF90AF900895FC01E8
:10041000538D448D252F30E0842F90E0821B930B69
:10042000541710F0CF96089501970895FC01918D0F
:10043000828D981761F0A28DAE0FBF2FB11D5D9612
:100440008C91928D9F5F9F73928F90E008958FEFB4
:100450009FEF0895FC01918D828D981731F0828D68
:10046000E80FF11D858D90E008958FEF9FEF0895BF
:10047000FC01918D228D892F90E0805C9F4F821B23
:1004800091098F739927089582EE92E00E943802B5
:1004900021E0892B09F420E0822F089580E090E08C
:1004A000892B29F00E94440281110C9400000895C8
:1004B000FC01A48DA80FB92FB11DA35ABF4F2C91D9
:1004C000848D90E001968F739927848FA689B789D0
:1004D0002C93A089B1898C91837080648C93938DC7
:1004E000848D981306C00288F389E02D80818F7D6A
:1004F00080830895EF92FF920F931F93CF93DF9322
:10050000EC0181E0888F9B8D8C8D98131AC0E8894F
:10051000F989808185FF15C09FB7F894EE89FF891E
:100520006083E889F98980818370806480839FBFBC
:1005300081E090E0DF91CF911F910F91FF90EF90BC
:100540000895F62E0B8D10E00F5F1F4F0F731127CC
:10055000E02E8C8D8E110CC00FB607FCFACFE88907
:10056000F989808185FFF5CFCE010E945802F1CF35
:10057000EB8DEC0FFD2FF11DE35AFF4FF0829FB77B
:10058000F8940B8FEA89FB8980818062CFCFCF936B
:10059000DF93EC01888D8823B9F0AA89BB89E889AB
:1005A000F9898C9185FD03C0808186FD0DC00FB651
:1005B00007FCF7CF8C9185FFF2CF808185FFEDCFCF
:1005C000CE010E945802E9CFDF91CF91089582EECB
:1005D00092E00E94C702E2EEF2E0A289B3898C9118
:1005E0008F7E8C93A289B3898C91877F8C93A2890B
:1005F000B3898C918F778C93A289B3898C918F7DED
:100600008C93828D818F0895FC0101900020E9F781
:100610003197AF01481B590BBC0182EE92E00C945C
:10062000DA01CF93DF930E940403EC018EE191E0A5
:100630000E9404038C0F9D1FDF91CF9108958F922C
:100640009F92AF92BF92CF92DF92EF92FF920F9361
:100650001F93CF93DF93CDB7DEB7A1970FB6F89472
:10066000DEBF0FBECDBF6B017C01F7FE41C06DE266
:1006700082EE92E00E947A028C0122273327A901A0
:100680002C193D094E095F0919A2CE0181967C0102
:100690009AE0892E912CA12CB12CCA01B901A50197
:1006A00094010E94A907605DF70162937F01211503
:1006B00031054105510589F790E080E0309719F048
:1006C000CF010E940403800F911FA1960FB6F894EA
:1006D000DEBF0FBECDBFDF91CF911F910F91FF9075
:1006E000EF90DF90CF90BF90AF909F908F90089544
:1006F000AC019B0119A28E010F5D1F4F8AE0C82E2D
:10070000D12CE12CF12CCA01B901A70196010E945C
:10071000A907605DF80162938F012115310541053C
:10072000510589F790E080E0309779F2CF010E947F
:100730000403CBCFCF93DF930E941F03EC018EE124
:1007400091E00E9404038C0F9D1FDF91CF910895CB
:10075000CF92DF92EF92FF92CF93DF936B017C01F8
:1007600081E291E00E940403C701B6010E949A034E
:1007700082EE92E00E94C7020E94E7026EE170E002
:1007800080E090E00E949C01C0920401D09205019B
:10079000E0920601F0920701C701B6010E948C00A9
:1007A0006EE170E080E090E00E949C01C092000148
:1007B000D0920101E0920201F092030181E0809366
:1007C000C20280E391E00E94110383E491E00E9461
:1007D00004036091040170910501809106019091DC
:1007E00007010E949A03C2E0D0E080E8C81685E2C3
:1007F000D806E104F10411F4C1E0D0E080E00E94E9
:10080000230168EC70E080E090E00E949C01F12CF4
:10081000E12C81E00E94230168EE73E080E090E02B
:100820000E949C0180E00E94230168EE73E080E05A
:1008300090E00E949C018FEFE81AF80ACE15DF05C0
:1008400041F7DF91CF91FF90EF90DF90CF90089527
:100850001F920F920FB60F9211242F933F938F93F5
:100860009F93AF93BF938091DA029091DB02A091A6
:10087000DC02B091DD023091D90223E0230F2D3745
:1008800058F50196A11DB11D2093D9028093DA027B
:100890009093DB02A093DC02B093DD028091DE0234
:1008A0009091DF02A091E002B091E1020196A11DBA
:1008B000B11D8093DE029093DF02A093E002B0931B
:1008C000E102BF91AF919F918F913F912F910F9036
:1008D0000FBE0F901F90189526E8230F0296A11DBA
:1008E000B11DD2CF1F920F920FB60F9211242F93EA
:1008F0003F934F935F936F937F938F939F93AF93A8
:10090000BF93EF93FF9382EE92E00E945802FF9113
:10091000EF91BF91AF919F918F917F916F915F9177
:100920004F913F912F910F900FBE0F901F901895F0
:100930001F920F920FB60F9211242F938F939F93B4
:10094000EF93FF93E091F202F091F3028081E09146
:10095000F802F091F90282FD1BC090818091FB02A8
:100960008F5F8F732091FC02821741F0E091FB02B0
:10097000F0E0EE51FD4F958F8093FB02FF91EF91D8
:100980009F918F912F910F900FBE0F901F901895F0
:100990008081F4CF789484B5826084BD84B5816011
:1009A00084BD85B5826085BD85B5816085BD80913A
:1009B0006E00816080936E001092810080918100B2
:1009C00082608093810080918100816080938100AA
:1009D000809180008160809380008091B10084606C
:1009E0008093B1008091B00081608093B0008091CD
:1009F0007A00846080937A0080917A00826080938C
:100A00007A0080917A00816080937A0080917A00E8
:100A1000806880937A001092C100E4EAF0E02491AB
:100A2000E0E9F0E084918823C1F090E0880F991FFD
:100A3000FC01E859FF4FC591D491FC01E458FF4FE8
:100A4000A591B4919FB7F8943881822F8095832324
:100A50008883EC91E22BEC939FBFE7EAF0E02491CE
:100A6000E3E9F0E08491882399F090E0880F991FE2
:100A7000FC01E859FF4FA591B491FC01E458FF4FE8
:100A8000859194918FB7F894EC91E22BEC938FBF02
:100A900080E895E2A0E0B0E080930001909301012E
:100AA000A0930201B0930301809304019093050188
:100AB000A0930601B093070160E875E280E090E042
:100AC0000E948C008EE491E00E94110383E791E084
:100AD0000E94040360910401709105018091060158
:100AE000909107010E949A0300E010E0772473942C
:100AF000EE24E394F12C90E8892E95E2992EA12C16
:100B0000B12C8AE00E944E01EC0180910A01909183
:100B10000B01C817D90751F00E94CE016093C9029A
:100B20007093CA028093CB029093CC020E94CE01B4
:100B30002091C9023091CA024091CB025091CC025F
:100B4000621B730B840B950B633371058105910553
:100B5000F0F080910801909109018C179D07B9F080
:100B60008091D7029091D802D0930901C0930801D7
:100B7000209709F0D3C00E94CE016093C502709304
:100B8000C6028093C7029093C8021092C40280915B
:100B9000080190910901892B09F082C08091C4025B
:100BA00081117EC0C090D702D090D8020E94CE01A1
:100BB0002091C5023091C6024091C7025091C802EF
:100BC000621B730B840B950B683B7B408105910581
:100BD00008F466C07092C4027092C302CD2809F076
:100BE000CDC08AE891E00E94110387EA91E00E945B
:100BF00004036091000170910101809102019091C4
:100C000003010E949A038091040190910501A09133
:100C10000601B091070180389542A105B10521F187
:100C20008AEB91E00E94110382EE92E00E94C702DB
:100C30000E94E7026EE170E080E090E00E949C017B
:100C40008092040190920501A0920601B0920701E2
:100C500060E875E280E090E00E948C006EE170E058
:100C600080E090E00E949C01F092D802E092D702CE
:100C70001092D2021092D1021092C2028AEE91E03A
:100C80000E94110386E092E00E9404036091040137
:100C90007091050180910601909107010E949A03CD
:100CA000D0930B01C0930A012090D3023090D4025C
:100CB0004090D5025090D6028091D7029091D802F0
:100CC000892B09F0AEC00E94CE0162197309840914
:100CD0009509693E734081059105A0F00E94CE01FF
:100CE0006093D3027093D4028093D5029093D6027E
:100CF0008DE00E944E0121E0892B09F020E0822F37
:100D00000E9423010115110509F4FBCE0E94440243
:100D1000882309F4F6CE0E940000F3CE2091C3028E
:100D2000222319F01092C30232CF019709F0B8CFF5
:100D30008091D1029091D20201969093D202809339
:100D4000D1020E94CE016093CD027093CE028093B7
:100D5000CF029093D0028FE791E00E94040360914C
:100D6000D1027091D202072E000C880B990B0E94C1
:100D70001F038EE191E00E94040309CF8AE192E013
:100D80000E9411038091C20281113DC04091040173
:100D90005091050160910601709107018091000159
:100DA00090910101A0910201B091030148175907E8
:100DB0006A077B0741F189E392E00E94110382EE0A
:100DC00092E00E94C7020E94E7026EE170E080E0BC
:100DD00090E00E949C01609100017091010180915E
:100DE00002019091030160930401709305018093C7
:100DF0000601909307010E948C006EE170E080E094
:100E000090E00E949C011092D8021092D70210929A
:100E1000D2021092D10280E00E9423018DE692E07E
:100E200033CF0E94CE01621973098409950967398D
:100E3000710581059105A0F00E94CE016093D30257
:100E40007093D4028093D5029093D6028DE00E94D5
:100E50004E0121E0892B09F020E0822F0E9423011E
:100E6000C091D102D091D2021C161D060CF04ACFBF
:100E70000E94CE012091CD023091CE024091CF024E
:100E80005091D002621B730B840B950B6D3D754026
:100E90008105910508F436CFC130D10579F48DE78D
:100EA00092E00E94110360E875E280E090E00E9409
:100EB000A8031092D2021092D10224CF229749F4B3
:100EC00081E992E00E94110360E072EC81E090E021
:100ED000EECF87EA92E00E9404036091D102709104
:100EE000D202072E000C880B990B0E941F038FEB78
:100EF00092E00E941103DDCFE2EEF2E01382128253
:100F000088EE93E0A0E0B0E084839583A683B78366
:100F100080E191E09183808385EC90E095878487E0
:100F200084EC90E09787868780EC90E0918B808BB3
:100F300081EC90E0938B828B82EC90E0958B848B9C
:100F400086EC90E0978B868B118E128E138E148E0A
:100F50000895A1E21A2EAA1BBB1BFD010DC0AA1FFA
:100F6000BB1FEE1FFF1FA217B307E407F50720F012
:100F7000A21BB30BE40BF50B661F771F881F991F8D
:100F80001A9469F760957095809590959B01AC01D6
:100F9000BD01CF010895EE0FFF1F0590F491E02DE4
:060FA0000994F894FFCF54
:100FA60080250000802500000100010000000000EF
:100FB6007A02DA010702C702380216022A020D0A6D
:100FC6000041702064756E6720626175643A200086
:100FD6003D3D3D2044412041502044554E47203D53
:100FE6003D3D0042617564206D6F693A2000486599
:100FF6002074686F6E67206B686F6920646F6E6718
:10100600202D2043484520444F2056414E2048413C
:101016004E48004261756420526174653A20004E64
:1010260068616E206C616E3A20000A3D3D3D205697
:10103600414F2043484520444F20434155204849CD
:101046004E48203D3D3D004C7575207472752074E8
:1010560072756F6320646F3A200043687579656E18
:101066002053657269616C2074616D2074686F69C4
:101076002073616E672039363030206465206361E5
:10108600752068696E682E2E2E0043686F6E3A20B2
:1010960031203D2039363030207C2032203D203131
:1010A60031353230300044616E67206F202874611C
:1010B6006D2074686F69293A20000A3D3D3D205431
:1010C600484F41542043484520444F204341552032
:1010D60048494E48203D3D3D004B686F6E67206194
:1010E600702064756E67206361752068696E68207C
:1010F6002D206B686F692070687563206261756466
:10110600207472756F6320646F2E2E2E00426175F7
:1011160064206869656E207461693A20004C7561C7
:101126002063686F6E3A2031202D3E2039363030EC
:10113600004C75612063686F6E3A2032202D3E2088
:10114600313135323030004C75612063686F6E2066
:101156006B686F6E6720686F70206C6520280029A9
:021166002E0059
:00000001FF
