:100000000C945E000C9486000C9486000C94860080
:100010000C9486000C9486000C9486000C94860048
:100020000C9486000C9486000C9486000C94860038
:100030000C9486000C9486000C9486000C94860028
:100040000C944B020C9486000C94BB020C94950209
:100050000C9486000C9486000C9486000C94860008
:100060000C9486000C9486000000000024002700F9
:100070002A0000000000250028002B0004040404CE
:100080000404040402020202020203030303030342
:10009000010204081020408001020408102001021F
:1000A00004081020000000080002010000030407FB
:1000B0000000000000000000ED02100511241FBE2A
:1000C000CFEFD8E0DEBFCDBF22E0A4E8B1E001C0B1
:1000D0001D92A433B207E1F711E0A0E0B1E0E4ED36
:1000E000FEE002C005900D92A438B107D9F710E0E8
:1000F000CDE5D0E004C02197FE010E945C05CC351F
:10010000D107C9F70E9461030C945D070C940000AD
:10011000E1EBF0E02491EDE9F0E09491E9E8F0E022
:10012000E491EE23C9F0222339F0233001F1A8F441
:10013000213019F1223029F1F0E0EE0FFF1FEE58C7
:10014000FF4FA591B4912FB7F894EC91811126C07F
:1001500090959E239C932FBF08952730A9F02830B7
:10016000C9F0243049F7209180002F7D03C02091F1
:1001700080002F7720938000DFCF24B52F7724BD18
:10018000DBCF24B52F7DFBCF2091B0002F772093BC
:10019000B000D2CF2091B0002F7DF9CF9E2BDACFC7
:1001A0003FB7F8948091890190918A01A0918B01C9
:1001B000B0918C0126B5A89B05C02F3F19F0019680
:1001C000A11DB11D3FBFBA2FA92F982F8827BC01B1
:1001D000CD01620F711D811D911D42E0660F771FD9
:1001E000881F991F4A95D1F70895AF92BF92CF9279
:1001F000DF92EF92FF920F931F93CF93DF936C01E7
:100200007B018B01040F151FEB015E01AE18BF08C7
:10021000C017D10759F06991D601ED91FC91019079
:10022000F081E02DC6010995892B79F7C501DF9191
:10023000CF911F910F91FF90EF90DF90CF90BF90E3
:10024000AF900895FC01538D448D252F30E0842F0D
:1002500090E0821B930B541710F0CF9608950197EE
:100260000895FC01918D828D981761F0A28DAE0FDB
:10027000BF2FB11D5D968C91928D9F5F9F73928F62
:1002800090E008958FEF9FEF0895FC01918D828D8E
:10029000981731F0828DE80FF11D858D90E008955B
:1002A0008FEF9FEF0895FC01918D228D892F90E0B3
:1002B000805C9F4F821B91098F73992708958DE869
:1002C00091E00E94530121E0892B09F420E0822F64
:1002D000089580E090E0892B29F00E945F01811150
:1002E0000C9400000895FC01A48DA80FB92FB11D36
:1002F000A35ABF4F2C91848D90E001968F7399275C
:10030000848FA689B7892C93A089B1898C91837039
:1003100080648C93938D848D981306C00288F38932
:10032000E02D80818F7D80830895EF92FF920F935F
:100330001F93CF93DF93EC0181E0888F9B8D8C8D91
:1003400098131AC0E889F989808185FF15C09FB785
:10035000F894EE89FF896083E889F9898081837048
:10036000806480839FBF81E090E0DF91CF911F91F7
:100370000F91FF90EF900895F62E0B8D10E00F5F18
:100380001F4F0F731127E02E8C8D8E110CC00FB6EE
:1003900007FCFACFE889F989808185FFF5CFCE0186
:1003A0000E947301F1CFEB8DEC0FFD2FF11DE35A8D
:1003B000FF4FF0829FB7F8940B8FEA89FB89808109
:1003C0008062CFCFCF93DF93EC01888D8823B9F083
:1003D000AA89BB89E889F9898C9185FD03C0808150
:1003E00086FD0DC00FB607FCF7CF8C9185FFF2CFCD
:1003F000808185FFEDCFCE010E947301E9CFDF91AF
:10040000CF910895FC0101900020E9F73197AF01E9
:10041000481B590BBC018DE891E00C94F500CF937B
:10042000DF930E940202EC0188E191E00E94020247
:100430008C0F9D1FDF91CF910895CF93DF93EC0137
:1004400080912A0290912B02009759F020912C0262
:1004500030912D022C173D0720F081E0DF91CF91E4
:100460000895BE016F5F7F4F0E948706009789F055
:1004700090932B0280932A02D0932D02C0932C02DA
:1004800020912E0230912F02232B39F7FC0110828C
:10049000E4CF80E0E3CF1F920F920FB60F921124AA
:1004A0002F933F938F939F93AF93BF938091850139
:1004B00090918601A0918701B091880130918401CB
:1004C00023E0230F2D3758F50196A11DB11D209370
:1004D00084018093850190938601A0938701B09356
:1004E00088018091890190918A01A0918B01B0913E
:1004F0008C010196A11DB11D8093890190938A0101
:10050000A0938B01B0938C01BF91AF919F918F917C
:100510003F912F910F900FBE0F901F90189526E8D6
:10052000230F0296A11DB11DD2CF1F920F920FB6BD
:100530000F9211242F933F934F935F936F937F9369
:100540008F939F93AF93BF93EF93FF938DE891E0C9
:100550000E947301FF91EF91BF91AF919F918F9195
:100560007F916F915F914F913F912F910F900FBEAF
:100570000F901F9018951F920F920FB60F92112493
:100580002F938F939F93EF93FF93E0919D01F091B1
:100590009E018081E091A301F091A40182FD1BC026
:1005A00090818091A6018F5F8F732091A7018217A0
:1005B00041F0E091A601F0E0E357FE4F958F809364
:1005C000A601FF91EF919F918F912F910F900FBEF8
:1005D0000F901F9018958081F4CF10929001109287
:1005E0008F0188EE93E0A0E0B0E0809391019093BA
:1005F0009201A0939301B09394018AE091E09093CB
:100600008E0180938D0185EC90E090939A01809308
:10061000990184EC90E090939C0180939B0180EC85
:1006200090E090939E0180939D0181EC90E09093E7
:10063000A00180939F0182EC90E09093A2018093AF
:10064000A10186EC90E09093A4018093A301109205
:10065000A6011092A7011092A8011092A901109270
:100660002B0210922A0210922D0210922C0210924C
:100670002F0210922E0290E080E00E941D02209135
:100680002A0230912B02811113C02115310519F076
:10069000C9010E94FE0510922B0210922A021092AC
:1006A0002F0210922E0210922D0210922C02089509
:1006B00010922F0210922E026AE171E0C9010C948F
:1006C0005607CF93DF9300D0CDB7DEB7789484B5CB
:1006D000826084BD84B5816084BD85B5826085BD3E
:1006E00085B5816085BD80916E00816080936E00CC
:1006F00010928100809181008260809381008091BE
:10070000810081608093810080918000816080936E
:1007100080008091B10084608093B1008091B0002E
:1007200081608093B00080917A00846080937A0029
:1007300080917A00826080937A0080917A00816053
:1007400080937A0080917A00806880937A0010927A
:10075000C100E0919D01F0919E0182E08083E091D3
:100760009901F0919A011082E0919B01F0919C0116
:100770008FEC80831092A501E091A101F091A2017C
:1007800086E08083E0919F01F091A00180818061EB
:100790008083E0919F01F091A00180818860808337
:1007A000E0919F01F091A001808180688083E091B9
:1007B0009F01F091A00180818F7D8083EDE9F0E0C1
:1007C0002491E9E8F0E08491882399F090E0880F83
:1007D000991FFC01E859FF4FA591B491FC01EE5817
:1007E000FF4F859194918FB7F894EC91E22BEC93A5
:1007F0008FBF80E00E9488008BE191E00E940F0291
:1008000090E0A92E90E0B92E8DE891E00E9453016E
:10081000892B09F449C00E94D0002B013C018AE0D9
:10082000C82ED12CE12CF12C0E94D000641975093E
:1008300086099709683E734081059105A8F321E078
:10084000C21AD108E108F10888EE480E83E0581E6C
:10085000611C711CC114D104E104F10429F78DE875
:1008600091E00E94310189831A8200912E02109139
:100870002F020F5F1F4FC8010E941D02882321F223
:1008800020912A0230912B0280912E0290912F020A
:10089000BE016F5F7F4F820F931F0E945607109318
:1008A0002F0200932E02B0CF00912E0210912F0242
:1008B0000115110509F43FC0C0902A02D0902B0207
:1008C0007601C114D10409F043C080912E029091A9
:1008D0002F02892B09F485C000912A0210912B0266
:1008E0006AE471E0C8010E944D07892B09F06CC0D1
:1008F00081E00E9488008DE491E00E940F0290E068
:1009000080E00E941D0220912A0230912B02811169
:100910007DC02115310519F0C9010E94FE05109214
:100920002B0210922A0210922F0210922E02109285
:100930002D0210922C02A114B10409F465CF0E947B
:100940005F01882309F460CF0E9400005DCF73012E
:100950003701FFEF6F1A7F0AF7018081082E000C24
:10096000990B0E941905892B91F7015011090C0D63
:100970001D1DF8018081082E000C990B0E9419059D
:10098000892B31F00E151F0518F001501109F1CF18
:10099000A8014F5F5F4F4E195F0950932F0240939C
:1009A0002E02CE14DF0420F4B701C6010E944407D2
:1009B000E0912A02F0912B0280912E0290912F0259
:1009C000E80FF91F108281CF6CE571E0C8010E9429
:1009D0004D07892B31F480E00E94880080E691E089
:1009E0008CCF80E791E00E94020240912E0250914C
:1009F0002F0260912A0270912B028DE891E00E94F3
:100A0000F50088E191E00E94020279CF10922F0256
:100A100010922E026AE171E0C9010E9456078BCF45
:100A200080912A0290912B02009711F00C94FE0500
:100A3000089591110C942205803219F08950855047
:100A4000C8F708959927882708952F923F924F92CB
:100A50005F926F927F928F929F92AF92BF92CF924E
:100A6000DF92EF92FF920F931F93CF93DF93CDB757
:100A7000DEB7CA1BDB0B0FB6F894DEBF0FBECDBFCF
:100A800009942A88398848885F846E847D848C84A0
:100A90009B84AA84B984C884DF80EE80FD800C81A9
:100AA0001B81AA81B981CE0FD11D0FB6F894DEBF8C
:100AB0000FBECDBFED010895EE0FFF1F0590F4911D
:100AC000E02D09940F931F93CF93DF93823091050C
:100AD00010F482E090E0E0913202F091330230E0D5
:100AE00020E0B0E0A0E0309799F42115310509F439
:100AF0004AC0281B390B24303105D8F58A819B81E7
:100B00006115710589F1FB0193838283FE0111C098
:100B1000408151810281138148175907E0F048173D
:100B2000590799F4109761F012960C931297139647
:100B30001C933296CF01DF91CF911F910F910895B1
:100B40000093320210933302F4CF2115310551F096
:100B50004217530738F0A901DB019A01BD01DF01FB
:100B6000F801C1CFEF01F9CF9093330280933202A5
:100B7000CDCFFE01E20FF31F8193919322503109F3
:100B800039832883D7CF2091300230913102232B33
:100B900041F42091020130910301309331022093FE
:100BA000300220910001309101012115310541F4FD
:100BB0002DB73EB74091040150910501241B350B20
:100BC000E0913002F0913102E217F307A0F42E1BFE
:100BD0003F0B2817390778F0AC014E5F5F4F2417A1
:100BE000350748F04E0F5F1F50933102409330029B
:100BF000819391939FCFF0E0E0E09CCFCF93DF9380
:100C00000097E9F0FC01329713821282A091320220
:100C1000B0913302ED0130E020E01097A1F4208183
:100C20003181820F931F20913002309131022817B9
:100C3000390709F061C0F0933102E0933002DF918F
:100C4000CF910895EA01CE17DF07E8F54A815B816D
:100C50009E0141155105B1F7E901FB83EA834991F2
:100C60005991C40FD51FEC17FD0761F48081918164
:100C70000296840F951FE90199838883828193816D
:100C80009B838A83F0E0E0E012968D919C9113970C
:100C90000097B9F52D913C911197CD010296820FE5
:100CA000931F20913002309131022817390739F60D
:100CB000309751F51092330210923202B093310204
:100CC000A0933002BCCFD383C28340815181840F73
:100CD000951FC817D90761F44E5F5F4F88819981CE
:100CE000480F591F518340838A819B81938382835C
:100CF0002115310509F0B0CFF0933302E0933202B1
:100D00009ECFFD01DC01C0CF13821282D7CFB0E0AD
:100D1000A0E0EDE8F6E00C9427058C01009751F473
:100D2000CB010E9462058C01C801CDB7DEB7E0E1BE
:100D30000C944305FC01E60FF71F9C01225031097A
:100D4000E217F30708F49DC0D901CD91DC9111970A
:100D5000C617D70798F0C530D10530F3CE010497F8
:100D60008617970708F3C61BD70B2297C193D19319
:100D70006D937C93CF010E94FE05D6CF5B01AC1A28
:100D8000BD0A4C018C0E9D1EA0913202B09133021F
:100D9000512C412CF12CE12C109731F5809130022F
:100DA000909131028815990509F05CC046165706E6
:100DB00008F058C08091000190910101009741F422
:100DC0008DB79EB74091040150910501841B950B8E
:100DD000E817F90708F055C0F0933102E0933002AC
:100DE000F90171836083A0CF8D919C911197129628
:100DF0006C90129713967C901397A815B90559F526
:100E00006C0142E0C40ED11CCA14DB0420F1AC0119
:100E10004A195B09DA011296159780F06282738293
:100E200051834083D9016D937C93E114F10471F0F7
:100E3000D7011396FC93EE93129776CF22968C0FE0
:100E40009D1FF90191838083F301EFCFF09333026B
:100E5000E093320269CF4816590608F42C017D014F
:100E6000D3019ACFCB010E9462057C01009749F023
:100E7000AE01B8010E944407C8010E94FE05870127
:100E800053CF10E000E050CFFB01DC0102C0019025
:100E90000D9241505040D8F70895FB01DC018D912F
:100EA000019080190110D9F3990B0895FB01DC0121
:100EB00001900D920020E1F7089510E0CDE5D0E01B
:100EC00004C0FE010E945C052196CE35D107C9F70A
:040ED000F894FFCFC4
:100ED400000034028000000000009501F5002201AA
:100EE400E2015301310145010D0A0048652074688F
:100EF4006F6E672073616E2073616E672E20436886
:100F04006F206C656E6820276F6E2720686F6163A1
:100F140020276F6666272E2E2E006F6E004C4544E8
:100F2400207374617475733A204F4E006F666600C7
:100F34004C4544207374617475733A204F464600DF
:100F44004C656E68206B686F6E6720686F70206CEC
:040F5400653A2000DA
:00000001FF
